{"abi":[{"type":"constructor","inputs":[{"name":"_stakingToken","type":"address","internalType":"address"},{"name":"_rewardToken","type":"address","internalType":"address"},{"name":"_rewardRate","type":"uint256","internalType":"uint256"}],"stateMutability":"nonpayable"},{"type":"function","name":"balances","inputs":[{"name":"","type":"address","internalType":"address"}],"outputs":[{"name":"","type":"uint256","internalType":"uint256"}],"stateMutability":"view"},{"type":"function","name":"claim","inputs":[],"outputs":[],"stateMutability":"nonpayable"},{"type":"function","name":"earned","inputs":[{"name":"account","type":"address","internalType":"address"}],"outputs":[{"name":"","type":"uint256","internalType":"uint256"}],"stateMutability":"view"},{"type":"function","name":"emergencyWithdraw","inputs":[],"outputs":[],"stateMutability":"nonpayable"},{"type":"function","name":"lastUpdateTime","inputs":[],"outputs":[{"name":"","type":"uint256","internalType":"uint256"}],"stateMutability":"view"},{"type":"function","name":"notifyRewardAmount","inputs":[{"name":"reward","type":"uint256","internalType":"uint256"}],"outputs":[],"stateMutability":"nonpayable"},{"type":"function","name":"owner","inputs":[],"outputs":[{"name":"","type":"address","internalType":"address"}],"stateMutability":"view"},{"type":"function","name":"rewardPerToken","inputs":[],"outputs":[{"name":"","type":"uint256","internalType":"uint256"}],"stateMutability":"view"},{"type":"function","name":"rewardPerTokenStored","inputs":[],"outputs":[{"name":"","type":"uint256","internalType":"uint256"}],"stateMutability":"view"},{"type":"function","name":"rewardRate","inputs":[],"outputs":[{"name":"","type":"uint256","internalType":"uint256"}],"stateMutability":"view"},{"type":"function","name":"rewardToken","inputs":[],"outputs":[{"name":"","type":"address","internalType":"contract IERC20"}],"stateMutability":"view"},{"type":"function","name":"rewards","inputs":[{"name":"","type":"address","internalType":"address"}],"outputs":[{"name":"","type":"uint256","internalType":"uint256"}],"stateMutability":"view"},{"type":"function","name":"setRewardRate","inputs":[{"name":"newRate","type":"uint256","internalType":"uint256"}],"outputs":[],"stateMutability":"nonpayable"},{"type":"function","name":"stake","inputs":[{"name":"amount","type":"uint256","internalType":"uint256"}],"outputs":[],"stateMutability":"nonpayable"},{"type":"function","name":"stakingToken","inputs":[],"outputs":[{"name":"","type":"address","internalType":"contract IERC20"}],"stateMutability":"view"},{"type":"function","name":"totalStaked","inputs":[],"outputs":[{"name":"","type":"uint256","internalType":"uint256"}],"stateMutability":"view"},{"type":"function","name":"userRewardPerTokenPaid","inputs":[{"name":"","type":"address","internalType":"address"}],"outputs":[{"name":"","type":"uint256","internalType":"uint256"}],"stateMutability":"view"},{"type":"function","name":"withdraw","inputs":[{"name":"amount","type":"uint256","internalType":"uint256"}],"outputs":[],"stateMutability":"nonpayable"},{"type":"event","name":"RewardPaid","inputs":[{"name":"user","type":"address","indexed":true,"internalType":"address"},{"name":"reward","type":"uint256","indexed":false,"internalType":"uint256"}],"anonymous":false},{"type":"event","name":"Staked","inputs":[{"name":"user","type":"address","indexed":true,"internalType":"address"},{"name":"amount","type":"uint256","indexed":false,"internalType":"uint256"}],"anonymous":false},{"type":"event","name":"Withdrawn","inputs":[{"name":"user","type":"address","indexed":true,"internalType":"address"},{"name":"amount","type":"uint256","indexed":false,"internalType":"uint256"}],"anonymous":false}],"bytecode":{"object":"0x60c060405234801561000f575f5ffd5b506040516118603803806118608339818101604052810190610031919061017f565b8273ffffffffffffffffffffffffffffffffffffffff1660a08173ffffffffffffffffffffffffffffffffffffffff16815250508173ffffffffffffffffffffffffffffffffffffffff1660808173ffffffffffffffffffffffffffffffffffffffff1681525050805f819055503360075f6101000a81548173ffffffffffffffffffffffffffffffffffffffff021916908373ffffffffffffffffffffffffffffffffffffffff160217905550426001819055505050506101cf565b5f5ffd5b5f73ffffffffffffffffffffffffffffffffffffffff82169050919050565b5f61011b826100f2565b9050919050565b61012b81610111565b8114610135575f5ffd5b50565b5f8151905061014681610122565b92915050565b5f819050919050565b61015e8161014c565b8114610168575f5ffd5b50565b5f8151905061017981610155565b92915050565b5f5f5f60608486031215610196576101956100ee565b5b5f6101a386828701610138565b93505060206101b486828701610138565b92505060406101c58682870161016b565b9150509250925092565b60805160a05161164d6102135f395f818161067701528181610b0d01528181610c990152610f3801525f81816107650152818161099f0152610fdd015261164d5ff3fe608060405234801561000f575f5ffd5b5060043610610113575f3560e01c80638b876347116100a0578063c8f33c911161006f578063c8f33c91146102c9578063cd3daf9d146102e7578063db2e21bc14610305578063df136d651461030f578063f7c618c11461032d57610113565b80638b876347146102435780638da5cb5b146102735780639e447fc614610291578063a694fc3a146102ad57610113565b80633c6b16ab116100e75780633c6b16ab146101c35780634e71d92d146101df57806372f702f3146101e95780637b0a47ee14610207578063817b1cd21461022557610113565b80628cc262146101175780630700037d1461014757806327e235e3146101775780632e1a7d4d146101a7575b5f5ffd5b610131600480360381019061012c919061105d565b61034b565b60405161013e91906110a0565b60405180910390f35b610161600480360381019061015c919061105d565b610446565b60405161016e91906110a0565b60405180910390f35b610191600480360381019061018c919061105d565b61045b565b60405161019e91906110a0565b60405180910390f35b6101c160048036038101906101bc91906110e3565b610470565b005b6101dd60048036038101906101d891906110e3565b610763565b005b6101e7610842565b005b6101f1610b0b565b6040516101fe9190611169565b60405180910390f35b61020f610b2f565b60405161021c91906110a0565b60405180910390f35b61022d610b34565b60405161023a91906110a0565b60405180910390f35b61025d6004803603810190610258919061105d565b610b3a565b60405161026a91906110a0565b60405180910390f35b61027b610b4f565b6040516102889190611191565b60405180910390f35b6102ab60048036038101906102a691906110e3565b610b74565b005b6102c760048036038101906102c291906110e3565b610b7d565b005b6102d1610df2565b6040516102de91906110a0565b60405180910390f35b6102ef610df8565b6040516102fc91906110a0565b60405180910390f35b61030d610e59565b005b610317610fd5565b60405161032491906110a0565b60405180910390f35b610335610fdb565b6040516103429190611169565b60405180910390f35b5f60045f8373ffffffffffffffffffffffffffffffffffffffff1673ffffffffffffffffffffffffffffffffffffffff1681526020019081526020015f2054670de0b6b3a764000060035f8573ffffffffffffffffffffffffffffffffffffffff1673ffffffffffffffffffffffffffffffffffffffff1681526020019081526020015f20546103d9610df8565b6103e391906111d7565b60055f8673ffffffffffffffffffffffffffffffffffffffff1673ffffffffffffffffffffffffffffffffffffffff1681526020019081526020015f205461042b919061120a565b6104359190611278565b61043f91906112a8565b9050919050565b6004602052805f5260405f205f915090505481565b6005602052805f5260405f205f915090505481565b33610479610df8565b600281905550426001819055505f73ffffffffffffffffffffffffffffffffffffffff168173ffffffffffffffffffffffffffffffffffffffff1614610548576104c28161034b565b60045f8373ffffffffffffffffffffffffffffffffffffffff1673ffffffffffffffffffffffffffffffffffffffff1681526020019081526020015f208190555060025460035f8373ffffffffffffffffffffffffffffffffffffffff1673ffffffffffffffffffffffffffffffffffffffff1681526020019081526020015f20819055505b5f821161058a576040517f08c379a000000000000000000000000000000000000000000000000000000000815260040161058190611335565b60405180910390fd5b8160055f3373ffffffffffffffffffffffffffffffffffffffff1673ffffffffffffffffffffffffffffffffffffffff1681526020019081526020015f2054101561060a576040517f08c379a00000000000000000000000000000000000000000000000000000000081526004016106019061139d565b60405180910390fd5b8160055f3373ffffffffffffffffffffffffffffffffffffffff1673ffffffffffffffffffffffffffffffffffffffff1681526020019081526020015f205f82825461065691906111d7565b925050819055508160065f82825461066e91906111d7565b925050819055507f000000000000000000000000000000000000000000000000000000000000000073ffffffffffffffffffffffffffffffffffffffff1663a9059cbb33846040518363ffffffff1660e01b81526004016106d09291906113bb565b6020604051808303815f875af11580156106ec573d5f5f3e3d5ffd5b505050506040513d601f19601f820116820180604052508101906107109190611417565b503373ffffffffffffffffffffffffffffffffffffffff167f7084f5476618d8e60b11ef0d7d3f06914655adb8793e28ff7f018d4c76d505d58360405161075791906110a0565b60405180910390a25050565b7f000000000000000000000000000000000000000000000000000000000000000073ffffffffffffffffffffffffffffffffffffffff166323b872dd3330846040518463ffffffff1660e01b81526004016107c093929190611442565b6020604051808303815f875af11580156107dc573d5f5f3e3d5ffd5b505050506040513d601f19601f820116820180604052508101906108009190611417565b61083f576040517f08c379a0000000000000000000000000000000000000000000000000000000008152600401610836906114c1565b60405180910390fd5b50565b3361084b610df8565b600281905550426001819055505f73ffffffffffffffffffffffffffffffffffffffff168173ffffffffffffffffffffffffffffffffffffffff161461091a576108948161034b565b60045f8373ffffffffffffffffffffffffffffffffffffffff1673ffffffffffffffffffffffffffffffffffffffff1681526020019081526020015f208190555060025460035f8373ffffffffffffffffffffffffffffffffffffffff1673ffffffffffffffffffffffffffffffffffffffff1681526020019081526020015f20819055505b5f60045f3373ffffffffffffffffffffffffffffffffffffffff1673ffffffffffffffffffffffffffffffffffffffff1681526020019081526020015f205490505f811161099d576040517f08c379a000000000000000000000000000000000000000000000000000000000815260040161099490611529565b60405180910390fd5b7f000000000000000000000000000000000000000000000000000000000000000073ffffffffffffffffffffffffffffffffffffffff1663a9059cbb33836040518363ffffffff1660e01b81526004016109f89291906113bb565b6020604051808303815f875af1158015610a14573d5f5f3e3d5ffd5b505050506040513d601f19601f82011682018060405250810190610a389190611417565b610a77576040517f08c379a0000000000000000000000000000000000000000000000000000000008152600401610a6e906114c1565b60405180910390fd5b5f60045f3373ffffffffffffffffffffffffffffffffffffffff1673ffffffffffffffffffffffffffffffffffffffff1681526020019081526020015f20819055503373ffffffffffffffffffffffffffffffffffffffff167fe2403640ba68fed3a2f88b7557551d1993f84b99bb10ff833f0cf8db0c5e048682604051610aff91906110a0565b60405180910390a25050565b7f000000000000000000000000000000000000000000000000000000000000000081565b5f5481565b60065481565b6003602052805f5260405f205f915090505481565b60075f9054906101000a900473ffffffffffffffffffffffffffffffffffffffff1681565b805f8190555050565b33610b86610df8565b600281905550426001819055505f73ffffffffffffffffffffffffffffffffffffffff168173ffffffffffffffffffffffffffffffffffffffff1614610c5557610bcf8161034b565b60045f8373ffffffffffffffffffffffffffffffffffffffff1673ffffffffffffffffffffffffffffffffffffffff1681526020019081526020015f208190555060025460035f8373ffffffffffffffffffffffffffffffffffffffff1673ffffffffffffffffffffffffffffffffffffffff1681526020019081526020015f20819055505b5f8211610c97576040517f08c379a0000000000000000000000000000000000000000000000000000000008152600401610c8e90611591565b60405180910390fd5b7f000000000000000000000000000000000000000000000000000000000000000073ffffffffffffffffffffffffffffffffffffffff166323b872dd3330856040518463ffffffff1660e01b8152600401610cf493929190611442565b6020604051808303815f875af1158015610d10573d5f5f3e3d5ffd5b505050506040513d601f19601f82011682018060405250810190610d349190611417565b508160065f828254610d4691906112a8565b925050819055508160055f3373ffffffffffffffffffffffffffffffffffffffff1673ffffffffffffffffffffffffffffffffffffffff1681526020019081526020015f205f828254610d9991906112a8565b925050819055503373ffffffffffffffffffffffffffffffffffffffff167f9e71bc8eea02a63969f509818f2dafb9254532904319f9dbda79b67bd34a5f3d83604051610de691906110a0565b60405180910390a25050565b60015481565b5f5f60065403610e0c576002549050610e56565b600654670de0b6b3a76400005f5460015442610e2891906111d7565b610e32919061120a565b610e3c919061120a565b610e469190611278565b600254610e5391906112a8565b90505b90565b5f60055f3373ffffffffffffffffffffffffffffffffffffffff1673ffffffffffffffffffffffffffffffffffffffff1681526020019081526020015f205490505f8111610edc576040517f08c379a0000000000000000000000000000000000000000000000000000000008152600401610ed3906115f9565b60405180910390fd5b5f60055f3373ffffffffffffffffffffffffffffffffffffffff1673ffffffffffffffffffffffffffffffffffffffff1681526020019081526020015f20819055508060065f828254610f2f91906111d7565b925050819055507f000000000000000000000000000000000000000000000000000000000000000073ffffffffffffffffffffffffffffffffffffffff1663a9059cbb33836040518363ffffffff1660e01b8152600401610f919291906113bb565b6020604051808303815f875af1158015610fad573d5f5f3e3d5ffd5b505050506040513d601f19601f82011682018060405250810190610fd19190611417565b5050565b60025481565b7f000000000000000000000000000000000000000000000000000000000000000081565b5f5ffd5b5f73ffffffffffffffffffffffffffffffffffffffff82169050919050565b5f61102c82611003565b9050919050565b61103c81611022565b8114611046575f5ffd5b50565b5f8135905061105781611033565b92915050565b5f6020828403121561107257611071610fff565b5b5f61107f84828501611049565b91505092915050565b5f819050919050565b61109a81611088565b82525050565b5f6020820190506110b35f830184611091565b92915050565b6110c281611088565b81146110cc575f5ffd5b50565b5f813590506110dd816110b9565b92915050565b5f602082840312156110f8576110f7610fff565b5b5f611105848285016110cf565b91505092915050565b5f819050919050565b5f61113161112c61112784611003565b61110e565b611003565b9050919050565b5f61114282611117565b9050919050565b5f61115382611138565b9050919050565b61116381611149565b82525050565b5f60208201905061117c5f83018461115a565b92915050565b61118b81611022565b82525050565b5f6020820190506111a45f830184611182565b92915050565b7f4e487b71000000000000000000000000000000000000000000000000000000005f52601160045260245ffd5b5f6111e182611088565b91506111ec83611088565b9250828203905081811115611204576112036111aa565b5b92915050565b5f61121482611088565b915061121f83611088565b925082820261122d81611088565b91508282048414831517611244576112436111aa565b5b5092915050565b7f4e487b71000000000000000000000000000000000000000000000000000000005f52601260045260245ffd5b5f61128282611088565b915061128d83611088565b92508261129d5761129c61124b565b5b828204905092915050565b5f6112b282611088565b91506112bd83611088565b92508282019050808211156112d5576112d46111aa565b5b92915050565b5f82825260208201905092915050565b7f43616e6e6f7420776974686472617720300000000000000000000000000000005f82015250565b5f61131f6011836112db565b915061132a826112eb565b602082019050919050565b5f6020820190508181035f83015261134c81611313565b9050919050565b7f496e73756666696369656e742062616c616e63650000000000000000000000005f82015250565b5f6113876014836112db565b915061139282611353565b602082019050919050565b5f6020820190508181035f8301526113b48161137b565b9050919050565b5f6040820190506113ce5f830185611182565b6113db6020830184611091565b9392505050565b5f8115159050919050565b6113f6816113e2565b8114611400575f5ffd5b50565b5f81519050611411816113ed565b92915050565b5f6020828403121561142c5761142b610fff565b5b5f61143984828501611403565b91505092915050565b5f6060820190506114555f830186611182565b6114626020830185611182565b61146f6040830184611091565b949350505050565b7f5472616e73666572206661696c656400000000000000000000000000000000005f82015250565b5f6114ab600f836112db565b91506114b682611477565b602082019050919050565b5f6020820190508181035f8301526114d88161149f565b9050919050565b7f4e6f2072657761726473000000000000000000000000000000000000000000005f82015250565b5f611513600a836112db565b915061151e826114df565b602082019050919050565b5f6020820190508181035f83015261154081611507565b9050919050565b7f43616e6e6f74207374616b6520300000000000000000000000000000000000005f82015250565b5f61157b600e836112db565b915061158682611547565b602082019050919050565b5f6020820190508181035f8301526115a88161156f565b9050919050565b7f4e6f2062616c616e6365000000000000000000000000000000000000000000005f82015250565b5f6115e3600a836112db565b91506115ee826115af565b602082019050919050565b5f6020820190508181035f830152611610816115d7565b905091905056fea2646970667358221220927716e8f1242a1aeee169d0490d47028bfca0fda2fdeb4e0ef9fd31d15db6ea64736f6c634300081e0033","linkReferences":{}},"methodIdentifiers":{"balances(address)":"27e235e3","claim()":"4e71d92d","earned(address)":"008cc262","emergencyWithdraw()":"db2e21bc","lastUpdateTime()":"c8f33c91","notifyRewardAmount(uint256)":"3c6b16ab","owner()":"8da5cb5b","rewardPerToken()":"cd3daf9d","rewardPerTokenStored()":"df136d65","rewardRate()":"7b0a47ee","rewardToken()":"f7c618c1","rewards(address)":"0700037d","setRewardRate(uint256)":"9e447fc6","stake(uint256)":"a694fc3a","stakingToken()":"72f702f3","totalStaked()":"817b1cd2","userRewardPerTokenPaid(address)":"8b876347","withdraw(uint256)":"2e1a7d4d"},"id":18}