{"abi":[{"type":"constructor","inputs":[{"name":"_asset","type":"address","internalType":"address"},{"name":"_name","type":"string","internalType":"string"},{"name":"_symbol","type":"string","internalType":"string"},{"name":"_feeRecipient","type":"address","internalType":"address"}],"stateMutability":"nonpayable"},{"type":"function","name":"allowance","inputs":[{"name":"owner","type":"address","internalType":"address"},{"name":"spender","type":"address","internalType":"address"}],"outputs":[{"name":"","type":"uint256","internalType":"uint256"}],"stateMutability":"view"},{"type":"function","name":"approve","inputs":[{"name":"spender","type":"address","internalType":"address"},{"name":"value","type":"uint256","internalType":"uint256"}],"outputs":[{"name":"","type":"bool","internalType":"bool"}],"stateMutability":"nonpayable"},{"type":"function","name":"asset","inputs":[],"outputs":[{"name":"","type":"address","internalType":"contract IERC20"}],"stateMutability":"view"},{"type":"function","name":"balanceOf","inputs":[{"name":"account","type":"address","internalType":"address"}],"outputs":[{"name":"","type":"uint256","internalType":"uint256"}],"stateMutability":"view"},{"type":"function","name":"collectFees","inputs":[],"outputs":[],"stateMutability":"nonpayable"},{"type":"function","name":"convertToAssets","inputs":[{"name":"shares","type":"uint256","internalType":"uint256"}],"outputs":[{"name":"","type":"uint256","internalType":"uint256"}],"stateMutability":"view"},{"type":"function","name":"convertToShares","inputs":[{"name":"assets","type":"uint256","internalType":"uint256"}],"outputs":[{"name":"","type":"uint256","internalType":"uint256"}],"stateMutability":"view"},{"type":"function","name":"decimals","inputs":[],"outputs":[{"name":"","type":"uint8","internalType":"uint8"}],"stateMutability":"view"},{"type":"function","name":"deposit","inputs":[{"name":"assets","type":"uint256","internalType":"uint256"}],"outputs":[{"name":"shares","type":"uint256","internalType":"uint256"}],"stateMutability":"nonpayable"},{"type":"function","name":"emergencyWithdraw","inputs":[{"name":"recipient","type":"address","internalType":"address"}],"outputs":[],"stateMutability":"nonpayable"},{"type":"function","name":"feeRecipient","inputs":[],"outputs":[{"name":"","type":"address","internalType":"address"}],"stateMutability":"view"},{"type":"function","name":"maxDeposit","inputs":[{"name":"","type":"address","internalType":"address"}],"outputs":[{"name":"","type":"uint256","internalType":"uint256"}],"stateMutability":"pure"},{"type":"function","name":"maxWithdraw","inputs":[{"name":"owner","type":"address","internalType":"address"}],"outputs":[{"name":"","type":"uint256","internalType":"uint256"}],"stateMutability":"view"},{"type":"function","name":"name","inputs":[],"outputs":[{"name":"","type":"string","internalType":"string"}],"stateMutability":"view"},{"type":"function","name":"owner","inputs":[],"outputs":[{"name":"","type":"address","internalType":"address"}],"stateMutability":"view"},{"type":"function","name":"performanceFee","inputs":[],"outputs":[{"name":"","type":"uint256","internalType":"uint256"}],"stateMutability":"view"},{"type":"function","name":"renounceOwnership","inputs":[],"outputs":[],"stateMutability":"nonpayable"},{"type":"function","name":"setFeeRecipient","inputs":[{"name":"newRecipient","type":"address","internalType":"address"}],"outputs":[],"stateMutability":"nonpayable"},{"type":"function","name":"setPerformanceFee","inputs":[{"name":"newFee","type":"uint256","internalType":"uint256"}],"outputs":[],"stateMutability":"nonpayable"},{"type":"function","name":"symbol","inputs":[],"outputs":[{"name":"","type":"string","internalType":"string"}],"stateMutability":"view"},{"type":"function","name":"totalAssets","inputs":[],"outputs":[{"name":"","type":"uint256","internalType":"uint256"}],"stateMutability":"view"},{"type":"function","name":"totalSupply","inputs":[],"outputs":[{"name":"","type":"uint256","internalType":"uint256"}],"stateMutability":"view"},{"type":"function","name":"transfer","inputs":[{"name":"to","type":"address","internalType":"address"},{"name":"value","type":"uint256","internalType":"uint256"}],"outputs":[{"name":"","type":"bool","internalType":"bool"}],"stateMutability":"nonpayable"},{"type":"function","name":"transferFrom","inputs":[{"name":"from","type":"address","internalType":"address"},{"name":"to","type":"address","internalType":"address"},{"name":"value","type":"uint256","internalType":"uint256"}],"outputs":[{"name":"","type":"bool","internalType":"bool"}],"stateMutability":"nonpayable"},{"type":"function","name":"transferOwnership","inputs":[{"name":"newOwner","type":"address","internalType":"address"}],"outputs":[],"stateMutability":"nonpayable"},{"type":"function","name":"withdraw","inputs":[{"name":"shares","type":"uint256","internalType":"uint256"}],"outputs":[{"name":"assets","type":"uint256","internalType":"uint256"}],"stateMutability":"nonpayable"},{"type":"event","name":"Approval","inputs":[{"name":"owner","type":"address","indexed":true,"internalType":"address"},{"name":"spender","type":"address","indexed":true,"internalType":"address"},{"name":"value","type":"uint256","indexed":false,"internalType":"uint256"}],"anonymous":false},{"type":"event","name":"Deposit","inputs":[{"name":"sender","type":"address","indexed":true,"internalType":"address"},{"name":"assets","type":"uint256","indexed":false,"internalType":"uint256"},{"name":"shares","type":"uint256","indexed":false,"internalType":"uint256"}],"anonymous":false},{"type":"event","name":"FeeRecipientUpdated","inputs":[{"name":"newRecipient","type":"address","indexed":true,"internalType":"address"}],"anonymous":false},{"type":"event","name":"FeesCollected","inputs":[{"name":"recipient","type":"address","indexed":true,"internalType":"address"},{"name":"amount","type":"uint256","indexed":false,"internalType":"uint256"}],"anonymous":false},{"type":"event","name":"OwnershipTransferred","inputs":[{"name":"previousOwner","type":"address","indexed":true,"internalType":"address"},{"name":"newOwner","type":"address","indexed":true,"internalType":"address"}],"anonymous":false},{"type":"event","name":"PerformanceFeeUpdated","inputs":[{"name":"newFee","type":"uint256","indexed":false,"internalType":"uint256"}],"anonymous":false},{"type":"event","name":"Transfer","inputs":[{"name":"from","type":"address","indexed":true,"internalType":"address"},{"name":"to","type":"address","indexed":true,"internalType":"address"},{"name":"value","type":"uint256","indexed":false,"internalType":"uint256"}],"anonymous":false},{"type":"event","name":"Withdraw","inputs":[{"name":"sender","type":"address","indexed":true,"internalType":"address"},{"name":"assets","type":"uint256","indexed":false,"internalType":"uint256"},{"name":"shares","type":"uint256","indexed":false,"internalType":"uint256"}],"anonymous":false},{"type":"error","name":"ERC20InsufficientAllowance","inputs":[{"name":"spender","type":"address","internalType":"address"},{"name":"allowance","type":"uint256","internalType":"uint256"},{"name":"needed","type":"uint256","internalType":"uint256"}]},{"type":"error","name":"ERC20InsufficientBalance","inputs":[{"name":"sender","type":"address","internalType":"address"},{"name":"balance","type":"uint256","internalType":"uint256"},{"name":"needed","type":"uint256","internalType":"uint256"}]},{"type":"error","name":"ERC20InvalidApprover","inputs":[{"name":"approver","type":"address","internalType":"address"}]},{"type":"error","name":"ERC20InvalidReceiver","inputs":[{"name":"receiver","type":"address","internalType":"address"}]},{"type":"error","name":"ERC20InvalidSender","inputs":[{"name":"sender","type":"address","internalType":"address"}]},{"type":"error","name":"ERC20InvalidSpender","inputs":[{"name":"spender","type":"address","internalType":"address"}]},{"type":"error","name":"OwnableInvalidOwner","inputs":[{"name":"owner","type":"address","internalType":"address"}]},{"type":"error","name":"OwnableUnauthorizedAccount","inputs":[{"name":"account","type":"address","internalType":"address"}]},{"type":"error","name":"ReentrancyGuardReentrantCall","inputs":[]}],"bytecode":{"object":"0x60a06040526064600655348015610014575f5ffd5b50604051612f4e380380612f4e83398181016040528101906100369190610418565b338383816003908161004891906106c4565b50806004908161005891906106c4565b505050600161007961006e61017c60201b60201c565b6101a560201b60201c565b5f01819055505f73ffffffffffffffffffffffffffffffffffffffff168173ffffffffffffffffffffffffffffffffffffffff16036100ef575f6040517f1e4fbdf70000000000000000000000000000000000000000000000000000000081526004016100e691906107a2565b60405180910390fd5b6100fe816101ae60201b60201c565b508373ffffffffffffffffffffffffffffffffffffffff1660808173ffffffffffffffffffffffffffffffffffffffff16815250508060085f6101000a81548173ffffffffffffffffffffffffffffffffffffffff021916908373ffffffffffffffffffffffffffffffffffffffff160217905550505050506107bb565b5f7f9b779b17422d0df92223018b32b4d1fa46e071723d6817e2486d003becc55f005f1b905090565b5f819050919050565b5f60055f9054906101000a900473ffffffffffffffffffffffffffffffffffffffff1690508160055f6101000a81548173ffffffffffffffffffffffffffffffffffffffff021916908373ffffffffffffffffffffffffffffffffffffffff1602179055508173ffffffffffffffffffffffffffffffffffffffff168173ffffffffffffffffffffffffffffffffffffffff167f8be0079c531659141344cd1fd0a4f28419497f9722a3daafe3b4186f6b6457e060405160405180910390a35050565b5f604051905090565b5f5ffd5b5f5ffd5b5f73ffffffffffffffffffffffffffffffffffffffff82169050919050565b5f6102ab82610282565b9050919050565b6102bb816102a1565b81146102c5575f5ffd5b50565b5f815190506102d6816102b2565b92915050565b5f5ffd5b5f5ffd5b5f601f19601f8301169050919050565b7f4e487b71000000000000000000000000000000000000000000000000000000005f52604160045260245ffd5b61032a826102e4565b810181811067ffffffffffffffff82111715610349576103486102f4565b5b80604052505050565b5f61035b610271565b90506103678282610321565b919050565b5f67ffffffffffffffff821115610386576103856102f4565b5b61038f826102e4565b9050602081019050919050565b8281835e5f83830152505050565b5f6103bc6103b78461036c565b610352565b9050828152602081018484840111156103d8576103d76102e0565b5b6103e384828561039c565b509392505050565b5f82601f8301126103ff576103fe6102dc565b5b815161040f8482602086016103aa565b91505092915050565b5f5f5f5f608085870312156104305761042f61027a565b5b5f61043d878288016102c8565b945050602085015167ffffffffffffffff81111561045e5761045d61027e565b5b61046a878288016103eb565b935050604085015167ffffffffffffffff81111561048b5761048a61027e565b5b610497878288016103eb565b92505060606104a8878288016102c8565b91505092959194509250565b5f81519050919050565b7f4e487b71000000000000000000000000000000000000000000000000000000005f52602260045260245ffd5b5f600282049050600182168061050257607f821691505b602082108103610515576105146104be565b5b50919050565b5f819050815f5260205f209050919050565b5f6020601f8301049050919050565b5f82821b905092915050565b5f600883026105777fffffffffffffffffffffffffffffffffffffffffffffffffffffffffffffffff8261053c565b610581868361053c565b95508019841693508086168417925050509392505050565b5f819050919050565b5f819050919050565b5f6105c56105c06105bb84610599565b6105a2565b610599565b9050919050565b5f819050919050565b6105de836105ab565b6105f26105ea826105cc565b848454610548565b825550505050565b5f5f905090565b6106096105fa565b6106148184846105d5565b505050565b5b818110156106375761062c5f82610601565b60018101905061061a565b5050565b601f82111561067c5761064d8161051b565b6106568461052d565b81016020851015610665578190505b6106796106718561052d565b830182610619565b50505b505050565b5f82821c905092915050565b5f61069c5f1984600802610681565b1980831691505092915050565b5f6106b4838361068d565b9150826002028217905092915050565b6106cd826104b4565b67ffffffffffffffff8111156106e6576106e56102f4565b5b6106f082546104eb565b6106fb82828561063b565b5f60209050601f83116001811461072c575f841561071a578287015190505b61072485826106a9565b86555061078b565b601f19841661073a8661051b565b5f5b828110156107615784890151825560018201915060208501945060208101905061073c565b8683101561077e578489015161077a601f89168261068d565b8355505b6001600288020188555050505b505050505050565b61079c816102a1565b82525050565b5f6020820190506107b55f830184610793565b92915050565b6080516127586107f65f395f818161076e015281816108ad0152818161099e01528181610a3f01528181610da5015261103d01526127585ff3fe608060405234801561000f575f5ffd5b506004361061018c575f3560e01c806370a08231116100dc578063b6b55f2511610095578063ce96cb771161006f578063ce96cb771461049a578063dd62ed3e146104ca578063e74b981b146104fa578063f2fde38b146105165761018c565b8063b6b55f2514610430578063c6e6f59214610460578063c8796572146104905761018c565b806370a082311461036c578063715018a61461039c57806387788782146103a65780638da5cb5b146103c457806395d89b41146103e2578063a9059cbb146104005761018c565b80632e1a7d4d11610149578063402d267d11610123578063402d267d146102e657806346904840146103165780636ff1c9bc1461033457806370897b23146103505761018c565b80632e1a7d4d1461027a578063313ce567146102aa57806338d52e0f146102c85761018c565b806301e1d1141461019057806306fdde03146101ae57806307a2d13a146101cc578063095ea7b3146101fc57806318160ddd1461022c57806323b872dd1461024a575b5f5ffd5b610198610532565b6040516101a59190611c7a565b60405180910390f35b6101b6610538565b6040516101c39190611d03565b60405180910390f35b6101e660048036038101906101e19190611d51565b6105c8565b6040516101f39190611c7a565b60405180910390f35b61021660048036038101906102119190611dd6565b61060e565b6040516102239190611e2e565b60405180910390f35b610234610630565b6040516102419190611c7a565b60405180910390f35b610264600480360381019061025f9190611e47565b610639565b6040516102719190611e2e565b60405180910390f35b610294600480360381019061028f9190611d51565b610667565b6040516102a19190611c7a565b60405180910390f35b6102b26108a3565b6040516102bf9190611eb2565b60405180910390f35b6102d06108ab565b6040516102dd9190611f26565b60405180910390f35b61030060048036038101906102fb9190611f3f565b6108cf565b60405161030d9190611c7a565b60405180910390f35b61031e6108f8565b60405161032b9190611f79565b60405180910390f35b61034e60048036038101906103499190611f3f565b61091d565b005b61036a60048036038101906103659190611d51565b610b23565b005b61038660048036038101906103819190611f3f565b610bb1565b6040516103939190611c7a565b60405180910390f35b6103a4610bf6565b005b6103ae610c09565b6040516103bb9190611c7a565b60405180910390f35b6103cc610c0f565b6040516103d99190611f79565b60405180910390f35b6103ea610c37565b6040516103f79190611d03565b60405180910390f35b61041a60048036038101906104159190611dd6565b610cc7565b6040516104279190611e2e565b60405180910390f35b61044a60048036038101906104459190611d51565b610ce9565b6040516104579190611c7a565b60405180910390f35b61047a60048036038101906104759190611d51565b610edc565b6040516104879190611c7a565b60405180910390f35b610498610f22565b005b6104b460048036038101906104af9190611f3f565b6111b0565b6040516104c19190611c7a565b60405180910390f35b6104e460048036038101906104df9190611f92565b6111c9565b6040516104f19190611c7a565b60405180910390f35b610514600480360381019061050f9190611f3f565b61124b565b005b610530600480360381019061052b9190611f3f565b611347565b005b60075481565b60606003805461054790611ffd565b80601f016020809104026020016040519081016040528092919081815260200182805461057390611ffd565b80156105be5780601f10610595576101008083540402835291602001916105be565b820191905f5260205f20905b8154815290600101906020018083116105a157829003601f168201915b5050505050905090565b5f5f6105d2610630565b90506103e8816105e2919061205a565b60016007546105f1919061205a565b846105fc919061208d565b61060691906120fb565b915050919050565b5f5f6106186113cb565b90506106258185856113d2565b600191505092915050565b5f600254905090565b5f5f6106436113cb565b90506106508582856113e4565b61065b858585611477565b60019150509392505050565b5f610670611567565b5f82116106b2576040517f08c379a00000000000000000000000000000000000000000000000000000000081526004016106a990612175565b60405180910390fd5b816106bc33610bb1565b10156106fd576040517f08c379a00000000000000000000000000000000000000000000000000000000081526004016106f4906121dd565b60405180910390fd5b610706826105c8565b90505f811161074a576040517f08c379a000000000000000000000000000000000000000000000000000000000815260040161074190612245565b60405180910390fd5b6107543383611589565b8060075f8282546107659190612263565b925050819055507f000000000000000000000000000000000000000000000000000000000000000073ffffffffffffffffffffffffffffffffffffffff1663a9059cbb33836040518363ffffffff1660e01b81526004016107c7929190612296565b6020604051808303815f875af11580156107e3573d5f5f3e3d5ffd5b505050506040513d601f19601f8201168201806040525081019061080791906122e7565b610846576040517f08c379a000000000000000000000000000000000000000000000000000000000815260040161083d9061235c565b60405180910390fd5b3373ffffffffffffffffffffffffffffffffffffffff167ff279e6a1f5e320cca91135676d9cb6e44ca8a08c0b88342bcdb1144f6511b568828460405161088e92919061237a565b60405180910390a261089e611608565b919050565b5f6012905090565b7f000000000000000000000000000000000000000000000000000000000000000081565b5f7fffffffffffffffffffffffffffffffffffffffffffffffffffffffffffffffff9050919050565b60085f9054906101000a900473ffffffffffffffffffffffffffffffffffffffff1681565b610925611622565b61092d611567565b5f73ffffffffffffffffffffffffffffffffffffffff168173ffffffffffffffffffffffffffffffffffffffff160361099b576040517f08c379a0000000000000000000000000000000000000000000000000000000008152600401610992906123eb565b60405180910390fd5b5f7f000000000000000000000000000000000000000000000000000000000000000073ffffffffffffffffffffffffffffffffffffffff166370a08231306040518263ffffffff1660e01b81526004016109f59190611f79565b602060405180830381865afa158015610a10573d5f5f3e3d5ffd5b505050506040513d601f19601f82011682018060405250810190610a34919061241d565b90505f6007819055507f000000000000000000000000000000000000000000000000000000000000000073ffffffffffffffffffffffffffffffffffffffff1663a9059cbb83836040518363ffffffff1660e01b8152600401610a98929190612296565b6020604051808303815f875af1158015610ab4573d5f5f3e3d5ffd5b505050506040513d601f19601f82011682018060405250810190610ad891906122e7565b610b17576040517f08c379a0000000000000000000000000000000000000000000000000000000008152600401610b0e9061235c565b60405180910390fd5b50610b20611608565b50565b610b2b611622565b6103e8811115610b70576040517f08c379a0000000000000000000000000000000000000000000000000000000008152600401610b6790612492565b60405180910390fd5b806006819055507f9b49d0cd76012d9c67241c2f68f836efbaf50ea29901a250040671402d5263f581604051610ba69190611c7a565b60405180910390a150565b5f5f5f8373ffffffffffffffffffffffffffffffffffffffff1673ffffffffffffffffffffffffffffffffffffffff1681526020019081526020015f20549050919050565b610bfe611622565b610c075f6116a9565b565b60065481565b5f60055f9054906101000a900473ffffffffffffffffffffffffffffffffffffffff16905090565b606060048054610c4690611ffd565b80601f0160208091040260200160405190810160405280929190818152602001828054610c7290611ffd565b8015610cbd5780601f10610c9457610100808354040283529160200191610cbd565b820191905f5260205f20905b815481529060010190602001808311610ca057829003601f168201915b5050505050905090565b5f5f610cd16113cb565b9050610cde818585611477565b600191505092915050565b5f610cf2611567565b5f8211610d34576040517f08c379a0000000000000000000000000000000000000000000000000000000008152600401610d2b906124fa565b60405180910390fd5b610d3d82610edc565b90505f8111610d81576040517f08c379a0000000000000000000000000000000000000000000000000000000008152600401610d7890612562565b60405180910390fd5b8160075f828254610d92919061205a565b92505081905550610da3338261176c565b7f000000000000000000000000000000000000000000000000000000000000000073ffffffffffffffffffffffffffffffffffffffff166323b872dd3330856040518463ffffffff1660e01b8152600401610e0093929190612580565b6020604051808303815f875af1158015610e1c573d5f5f3e3d5ffd5b505050506040513d601f19601f82011682018060405250810190610e4091906122e7565b610e7f576040517f08c379a0000000000000000000000000000000000000000000000000000000008152600401610e769061235c565b60405180910390fd5b3373ffffffffffffffffffffffffffffffffffffffff167f90890809c654f11d6e72a28fa60149770a0d11ec6c92319d6ceb2bb0a4ea1a158383604051610ec792919061237a565b60405180910390a2610ed7611608565b919050565b5f5f610ee6610630565b90506001600754610ef7919061205a565b6103e882610f05919061205a565b84610f10919061208d565b610f1a91906120fb565b915050919050565b610f2a611622565b610f32611567565b5f73ffffffffffffffffffffffffffffffffffffffff1660085f9054906101000a900473ffffffffffffffffffffffffffffffffffffffff1673ffffffffffffffffffffffffffffffffffffffff1603610fc1576040517f08c379a0000000000000000000000000000000000000000000000000000000008152600401610fb8906125ff565b60405180910390fd5b5f612710600654600754610fd5919061208d565b610fdf91906120fb565b90505f8111611023576040517f08c379a000000000000000000000000000000000000000000000000000000000815260040161101a90612667565b60405180910390fd5b8060075f8282546110349190612263565b925050819055507f000000000000000000000000000000000000000000000000000000000000000073ffffffffffffffffffffffffffffffffffffffff1663a9059cbb60085f9054906101000a900473ffffffffffffffffffffffffffffffffffffffff16836040518363ffffffff1660e01b81526004016110b7929190612296565b6020604051808303815f875af11580156110d3573d5f5f3e3d5ffd5b505050506040513d601f19601f820116820180604052508101906110f791906122e7565b611136576040517f08c379a000000000000000000000000000000000000000000000000000000000815260040161112d906126cf565b60405180910390fd5b60085f9054906101000a900473ffffffffffffffffffffffffffffffffffffffff1673ffffffffffffffffffffffffffffffffffffffff167f9dc46f23cfb5ddcad0ae7ea2be38d47fec07bb9382ec7e564efc69e036dd66ce8260405161119d9190611c7a565b60405180910390a2506111ae611608565b565b5f6111c26111bd83610bb1565b6105c8565b9050919050565b5f60015f8473ffffffffffffffffffffffffffffffffffffffff1673ffffffffffffffffffffffffffffffffffffffff1681526020019081526020015f205f8373ffffffffffffffffffffffffffffffffffffffff1673ffffffffffffffffffffffffffffffffffffffff1681526020019081526020015f2054905092915050565b611253611622565b5f73ffffffffffffffffffffffffffffffffffffffff168173ffffffffffffffffffffffffffffffffffffffff16036112c1576040517f08c379a00000000000000000000000000000000000000000000000000000000081526004016112b8906123eb565b60405180910390fd5b8060085f6101000a81548173ffffffffffffffffffffffffffffffffffffffff021916908373ffffffffffffffffffffffffffffffffffffffff1602179055508073ffffffffffffffffffffffffffffffffffffffff167f7a7b5a0a132f9e0581eb8527f66eae9ee89c2a3e79d4ac7e41a1f1f4d48a7fc260405160405180910390a250565b61134f611622565b5f73ffffffffffffffffffffffffffffffffffffffff168173ffffffffffffffffffffffffffffffffffffffff16036113bf575f6040517f1e4fbdf70000000000000000000000000000000000000000000000000000000081526004016113b69190611f79565b60405180910390fd5b6113c8816116a9565b50565b5f33905090565b6113df83838360016117eb565b505050565b5f6113ef84846111c9565b90507fffffffffffffffffffffffffffffffffffffffffffffffffffffffffffffffff8110156114715781811015611462578281836040517ffb8f41b2000000000000000000000000000000000000000000000000000000008152600401611459939291906126ed565b60405180910390fd5b61147084848484035f6117eb565b5b50505050565b5f73ffffffffffffffffffffffffffffffffffffffff168373ffffffffffffffffffffffffffffffffffffffff16036114e7575f6040517f96c6fd1e0000000000000000000000000000000000000000000000000000000081526004016114de9190611f79565b60405180910390fd5b5f73ffffffffffffffffffffffffffffffffffffffff168273ffffffffffffffffffffffffffffffffffffffff1603611557575f6040517fec442f0500000000000000000000000000000000000000000000000000000000815260040161154e9190611f79565b60405180910390fd5b6115628383836119ba565b505050565b61156f611bd3565b600261158161157c611c14565b611c3d565b5f0181905550565b5f73ffffffffffffffffffffffffffffffffffffffff168273ffffffffffffffffffffffffffffffffffffffff16036115f9575f6040517f96c6fd1e0000000000000000000000000000000000000000000000000000000081526004016115f09190611f79565b60405180910390fd5b611604825f836119ba565b5050565b600161161a611615611c14565b611c3d565b5f0181905550565b61162a6113cb565b73ffffffffffffffffffffffffffffffffffffffff16611648610c0f565b73ffffffffffffffffffffffffffffffffffffffff16146116a75761166b6113cb565b6040517f118cdaa700000000000000000000000000000000000000000000000000000000815260040161169e9190611f79565b60405180910390fd5b565b5f60055f9054906101000a900473ffffffffffffffffffffffffffffffffffffffff1690508160055f6101000a81548173ffffffffffffffffffffffffffffffffffffffff021916908373ffffffffffffffffffffffffffffffffffffffff1602179055508173ffffffffffffffffffffffffffffffffffffffff168173ffffffffffffffffffffffffffffffffffffffff167f8be0079c531659141344cd1fd0a4f28419497f9722a3daafe3b4186f6b6457e060405160405180910390a35050565b5f73ffffffffffffffffffffffffffffffffffffffff168273ffffffffffffffffffffffffffffffffffffffff16036117dc575f6040517fec442f050000000000000000000000000000000000000000000000000000000081526004016117d39190611f79565b60405180910390fd5b6117e75f83836119ba565b5050565b5f73ffffffffffffffffffffffffffffffffffffffff168473ffffffffffffffffffffffffffffffffffffffff160361185b575f6040517fe602df050000000000000000000000000000000000000000000000000000000081526004016118529190611f79565b60405180910390fd5b5f73ffffffffffffffffffffffffffffffffffffffff168373ffffffffffffffffffffffffffffffffffffffff16036118cb575f6040517f94280d620000000000000000000000000000000000000000000000000000000081526004016118c29190611f79565b60405180910390fd5b8160015f8673ffffffffffffffffffffffffffffffffffffffff1673ffffffffffffffffffffffffffffffffffffffff1681526020019081526020015f205f8573ffffffffffffffffffffffffffffffffffffffff1673ffffffffffffffffffffffffffffffffffffffff1681526020019081526020015f208190555080156119b4578273ffffffffffffffffffffffffffffffffffffffff168473ffffffffffffffffffffffffffffffffffffffff167f8c5be1e5ebec7d5bd14f71427d1e84f3dd0314c0f7b2291e5b200ac8c7c3b925846040516119ab9190611c7a565b60405180910390a35b50505050565b5f73ffffffffffffffffffffffffffffffffffffffff168373ffffffffffffffffffffffffffffffffffffffff1603611a0a578060025f8282546119fe919061205a565b92505081905550611ad8565b5f5f5f8573ffffffffffffffffffffffffffffffffffffffff1673ffffffffffffffffffffffffffffffffffffffff1681526020019081526020015f2054905081811015611a93578381836040517fe450d38c000000000000000000000000000000000000000000000000000000008152600401611a8a939291906126ed565b60405180910390fd5b8181035f5f8673ffffffffffffffffffffffffffffffffffffffff1673ffffffffffffffffffffffffffffffffffffffff1681526020019081526020015f2081905550505b5f73ffffffffffffffffffffffffffffffffffffffff168273ffffffffffffffffffffffffffffffffffffffff1603611b1f578060025f8282540392505081905550611b69565b805f5f8473ffffffffffffffffffffffffffffffffffffffff1673ffffffffffffffffffffffffffffffffffffffff1681526020019081526020015f205f82825401925050819055505b8173ffffffffffffffffffffffffffffffffffffffff168373ffffffffffffffffffffffffffffffffffffffff167fddf252ad1be2c89b69c2b068fc378daa952ba7f163c4a11628f55a4df523b3ef83604051611bc69190611c7a565b60405180910390a3505050565b611bdb611c46565b15611c12576040517f3ee5aeb500000000000000000000000000000000000000000000000000000000815260040160405180910390fd5b565b5f7f9b779b17422d0df92223018b32b4d1fa46e071723d6817e2486d003becc55f005f1b905090565b5f819050919050565b5f6002611c59611c54611c14565b611c3d565b5f015414905090565b5f819050919050565b611c7481611c62565b82525050565b5f602082019050611c8d5f830184611c6b565b92915050565b5f81519050919050565b5f82825260208201905092915050565b8281835e5f83830152505050565b5f601f19601f8301169050919050565b5f611cd582611c93565b611cdf8185611c9d565b9350611cef818560208601611cad565b611cf881611cbb565b840191505092915050565b5f6020820190508181035f830152611d1b8184611ccb565b905092915050565b5f5ffd5b611d3081611c62565b8114611d3a575f5ffd5b50565b5f81359050611d4b81611d27565b92915050565b5f60208284031215611d6657611d65611d23565b5b5f611d7384828501611d3d565b91505092915050565b5f73ffffffffffffffffffffffffffffffffffffffff82169050919050565b5f611da582611d7c565b9050919050565b611db581611d9b565b8114611dbf575f5ffd5b50565b5f81359050611dd081611dac565b92915050565b5f5f60408385031215611dec57611deb611d23565b5b5f611df985828601611dc2565b9250506020611e0a85828601611d3d565b9150509250929050565b5f8115159050919050565b611e2881611e14565b82525050565b5f602082019050611e415f830184611e1f565b92915050565b5f5f5f60608486031215611e5e57611e5d611d23565b5b5f611e6b86828701611dc2565b9350506020611e7c86828701611dc2565b9250506040611e8d86828701611d3d565b9150509250925092565b5f60ff82169050919050565b611eac81611e97565b82525050565b5f602082019050611ec55f830184611ea3565b92915050565b5f819050919050565b5f611eee611ee9611ee484611d7c565b611ecb565b611d7c565b9050919050565b5f611eff82611ed4565b9050919050565b5f611f1082611ef5565b9050919050565b611f2081611f06565b82525050565b5f602082019050611f395f830184611f17565b92915050565b5f60208284031215611f5457611f53611d23565b5b5f611f6184828501611dc2565b91505092915050565b611f7381611d9b565b82525050565b5f602082019050611f8c5f830184611f6a565b92915050565b5f5f60408385031215611fa857611fa7611d23565b5b5f611fb585828601611dc2565b9250506020611fc685828601611dc2565b9150509250929050565b7f4e487b71000000000000000000000000000000000000000000000000000000005f52602260045260245ffd5b5f600282049050600182168061201457607f821691505b60208210810361202757612026611fd0565b5b50919050565b7f4e487b71000000000000000000000000000000000000000000000000000000005f52601160045260245ffd5b5f61206482611c62565b915061206f83611c62565b92508282019050808211156120875761208661202d565b5b92915050565b5f61209782611c62565b91506120a283611c62565b92508282026120b081611c62565b915082820484148315176120c7576120c661202d565b5b5092915050565b7f4e487b71000000000000000000000000000000000000000000000000000000005f52601260045260245ffd5b5f61210582611c62565b915061211083611c62565b9250826121205761211f6120ce565b5b828204905092915050565b7f43616e6e6f7420776974686472617720300000000000000000000000000000005f82015250565b5f61215f601183611c9d565b915061216a8261212b565b602082019050919050565b5f6020820190508181035f83015261218c81612153565b9050919050565b7f496e73756666696369656e7420736861726573000000000000000000000000005f82015250565b5f6121c7601383611c9d565b91506121d282612193565b602082019050919050565b5f6020820190508181035f8301526121f4816121bb565b9050919050565b7f43616e6e6f7420776974686472617720302061737365747300000000000000005f82015250565b5f61222f601883611c9d565b915061223a826121fb565b602082019050919050565b5f6020820190508181035f83015261225c81612223565b9050919050565b5f61226d82611c62565b915061227883611c62565b92508282039050818111156122905761228f61202d565b5b92915050565b5f6040820190506122a95f830185611f6a565b6122b66020830184611c6b565b9392505050565b6122c681611e14565b81146122d0575f5ffd5b50565b5f815190506122e1816122bd565b92915050565b5f602082840312156122fc576122fb611d23565b5b5f612309848285016122d3565b91505092915050565b7f5472616e73666572206661696c656400000000000000000000000000000000005f82015250565b5f612346600f83611c9d565b915061235182612312565b602082019050919050565b5f6020820190508181035f8301526123738161233a565b9050919050565b5f60408201905061238d5f830185611c6b565b61239a6020830184611c6b565b9392505050565b7f496e76616c696420726563697069656e740000000000000000000000000000005f82015250565b5f6123d5601183611c9d565b91506123e0826123a1565b602082019050919050565b5f6020820190508181035f830152612402816123c9565b9050919050565b5f8151905061241781611d27565b92915050565b5f6020828403121561243257612431611d23565b5b5f61243f84828501612409565b91505092915050565b7f4665652065786365656473206d6178696d756d000000000000000000000000005f82015250565b5f61247c601383611c9d565b915061248782612448565b602082019050919050565b5f6020820190508181035f8301526124a981612470565b9050919050565b7f43616e6e6f74206465706f7369742030000000000000000000000000000000005f82015250565b5f6124e4601083611c9d565b91506124ef826124b0565b602082019050919050565b5f6020820190508181035f830152612511816124d8565b9050919050565b7f43616e6e6f74206d696e742030207368617265730000000000000000000000005f82015250565b5f61254c601483611c9d565b915061255782612518565b602082019050919050565b5f6020820190508181035f83015261257981612540565b9050919050565b5f6060820190506125935f830186611f6a565b6125a06020830185611f6a565b6125ad6040830184611c6b565b949350505050565b7f46656520726563697069656e74206e6f742073657400000000000000000000005f82015250565b5f6125e9601583611c9d565b91506125f4826125b5565b602082019050919050565b5f6020820190508181035f830152612616816125dd565b9050919050565b7f4e6f206665657320746f20636f6c6c65637400000000000000000000000000005f82015250565b5f612651601283611c9d565b915061265c8261261d565b602082019050919050565b5f6020820190508181035f83015261267e81612645565b9050919050565b7f466565207472616e73666572206661696c6564000000000000000000000000005f82015250565b5f6126b9601383611c9d565b91506126c482612685565b602082019050919050565b5f6020820190508181035f8301526126e6816126ad565b9050919050565b5f6060820190506127005f830186611f6a565b61270d6020830185611c6b565b61271a6040830184611c6b565b94935050505056fea264697066735822122083e8905752925a7c80b6b741dd10de602710750de2f85032036ba0974958235164736f6c634300081e0033","linkReferences":{}},"methodIdentifiers":{"allowance(address,address)":"dd62ed3e","approve(address,uint256)":"095ea7b3","asset()":"38d52e0f","balanceOf(address)":"70a08231","collectFees()":"c8796572","convertToAssets(uint256)":"07a2d13a","convertToShares(uint256)":"c6e6f592","decimals()":"313ce567","deposit(uint256)":"b6b55f25","emergencyWithdraw(address)":"6ff1c9bc","feeRecipient()":"46904840","maxDeposit(address)":"402d267d","maxWithdraw(address)":"ce96cb77","name()":"06fdde03","owner()":"8da5cb5b","performanceFee()":"87788782","renounceOwnership()":"715018a6","setFeeRecipient(address)":"e74b981b","setPerformanceFee(uint256)":"70897b23","symbol()":"95d89b41","totalAssets()":"01e1d114","totalSupply()":"18160ddd","transfer(address,uint256)":"a9059cbb","transferFrom(address,address,uint256)":"23b872dd","transferOwnership(address)":"f2fde38b","withdraw(uint256)":"2e1a7d4d"},"id":16}