{"src/VulnerableGovernance.sol":{"VulnerableGovernance":{"abi":[{"type":"constructor","inputs":[{"name":"_governanceToken","type":"address","internalType":"address"}],"stateMutability":"nonpayable"},{"type":"function","name":"cancel","inputs":[{"name":"proposalId","type":"uint256","internalType":"uint256"}],"outputs":[],"stateMutability":"nonpayable"},{"type":"function","name":"castVote","inputs":[{"name":"proposalId","type":"uint256","internalType":"uint256"},{"name":"support","type":"bool","internalType":"bool"}],"outputs":[],"stateMutability":"nonpayable"},{"type":"function","name":"delegate","inputs":[{"name":"delegatee","type":"address","internalType":"address"}],"outputs":[],"stateMutability":"nonpayable"},{"type":"function","name":"delegates","inputs":[{"name":"","type":"address","internalType":"address"}],"outputs":[{"name":"","type":"address","internalType":"address"}],"stateMutability":"view"},{"type":"function","name":"execute","inputs":[{"name":"proposalId","type":"uint256","internalType":"uint256"}],"outputs":[],"stateMutability":"nonpayable"},{"type":"function","name":"getVotes","inputs":[{"name":"account","type":"address","internalType":"address"}],"outputs":[{"name":"","type":"uint256","internalType":"uint256"}],"stateMutability":"view"},{"type":"function","name":"governanceToken","inputs":[],"outputs":[{"name":"","type":"address","internalType":"contract IERC20"}],"stateMutability":"view"},{"type":"function","name":"proposalCount","inputs":[],"outputs":[{"name":"","type":"uint256","internalType":"uint256"}],"stateMutability":"view"},{"type":"function","name":"proposalThreshold","inputs":[],"outputs":[{"name":"","type":"uint256","internalType":"uint256"}],"stateMutability":"view"},{"type":"function","name":"proposals","inputs":[{"name":"","type":"uint256","internalType":"uint256"}],"outputs":[{"name":"proposer","type":"address","internalType":"address"},{"name":"target","type":"address","internalType":"address"},{"name":"data","type":"bytes","internalType":"bytes"},{"name":"forVotes","type":"uint256","internalType":"uint256"},{"name":"againstVotes","type":"uint256","internalType":"uint256"},{"name":"startBlock","type":"uint256","internalType":"uint256"},{"name":"endBlock","type":"uint256","internalType":"uint256"},{"name":"executed","type":"bool","internalType":"bool"},{"name":"canceled","type":"bool","internalType":"bool"}],"stateMutability":"view"},{"type":"function","name":"propose","inputs":[{"name":"target","type":"address","internalType":"address"},{"name":"data","type":"bytes","internalType":"bytes"}],"outputs":[{"name":"","type":"uint256","internalType":"uint256"}],"stateMutability":"nonpayable"},{"type":"function","name":"quorum","inputs":[],"outputs":[{"name":"","type":"uint256","internalType":"uint256"}],"stateMutability":"view"},{"type":"function","name":"setQuorum","inputs":[{"name":"newQuorum","type":"uint256","internalType":"uint256"}],"outputs":[],"stateMutability":"nonpayable"},{"type":"function","name":"setVotingPeriod","inputs":[{"name":"newPeriod","type":"uint256","internalType":"uint256"}],"outputs":[],"stateMutability":"nonpayable"},{"type":"function","name":"votingPeriod","inputs":[],"outputs":[{"name":"","type":"uint256","internalType":"uint256"}],"stateMutability":"view"},{"type":"event","name":"ProposalCreated","inputs":[{"name":"proposalId","type":"uint256","indexed":true,"internalType":"uint256"},{"name":"proposer","type":"address","indexed":false,"internalType":"address"},{"name":"target","type":"address","indexed":false,"internalType":"address"}],"anonymous":false},{"type":"event","name":"ProposalExecuted","inputs":[{"name":"proposalId","type":"uint256","indexed":true,"internalType":"uint256"}],"anonymous":false},{"type":"event","name":"VoteCast","inputs":[{"name":"voter","type":"address","indexed":true,"internalType":"address"},{"name":"proposalId","type":"uint256","indexed":true,"internalType":"uint256"},{"name":"support","type":"bool","indexed":false,"internalType":"bool"},{"name":"votes","type":"uint256","indexed":false,"internalType":"uint256"}],"anonymous":false}],"userdoc":{},"devdoc":{},"evm":{"bytecode":{"object":"60806040526283d600600355683635c9adc5dea000006004555f600555348015610027575f5ffd5b50604051611d34380380611d34833981810160405281019061004991906100ec565b805f5f6101000a81548173ffffffffffffffffffffffffffffffffffffffff021916908373ffffffffffffffffffffffffffffffffffffffff16021790555050610117565b5f5ffd5b5f73ffffffffffffffffffffffffffffffffffffffff82169050919050565b5f6100bb82610092565b9050919050565b6100cb816100b1565b81146100d5575f5ffd5b50565b5f815190506100e6816100c2565b92915050565b5f602082840312156101015761010061008e565b5b5f61010e848285016100d8565b91505092915050565b611c10806101245f395ff3fe608060405234801561000f575f5ffd5b50600436106100f3575f3560e01c80639ab24eb011610095578063da35c66411610064578063da35c66414610289578063ea0217cf146102a7578063f96dae0a146102c3578063fe0d94c1146102e1576100f3565b80639ab24eb0146101ef5780639d4818481461021f578063b58131b01461024f578063c1ba4e591461026d576100f3565b80631703a018116100d15780631703a0181461016957806340e58ee514610187578063587cde1e146101a35780635c19a95c146101d3576100f3565b8063013cf08b146100f757806302a251a31461012f57806315373e3d1461014d575b5f5ffd5b610111600480360381019061010c9190610e3d565b6102fd565b60405161012699989796959493929190610f40565b60405180910390f35b610137610424565b6040516101449190610fd2565b60405180910390f35b61016760048036038101906101629190611015565b61042a565b005b610171610723565b60405161017e9190610fd2565b60405180910390f35b6101a1600480360381019061019c9190610e3d565b610729565b005b6101bd60048036038101906101b8919061107d565b610801565b6040516101ca91906110a8565b60405180910390f35b6101ed60048036038101906101e8919061107d565b610831565b005b6102096004803603810190610204919061107d565b6108af565b6040516102169190610fd2565b60405180910390f35b610239600480360381019061023491906111ed565b61094f565b6040516102469190610fd2565b60405180910390f35b610257610b52565b6040516102649190610fd2565b60405180910390f35b61028760048036038101906102829190610e3d565b610b58565b005b610291610b62565b60405161029e9190610fd2565b60405180910390f35b6102c160048036038101906102bc9190610e3d565b610b68565b005b6102cb610b72565b6040516102d891906112a2565b60405180910390f35b6102fb60048036038101906102f69190610e3d565b610b96565b005b6001602052805f5260405f205f91509050805f015f9054906101000a900473ffffffffffffffffffffffffffffffffffffffff1690806001015f9054906101000a900473ffffffffffffffffffffffffffffffffffffffff1690806002018054610366906112e8565b80601f0160208091040260200160405190810160405280929190818152602001828054610392906112e8565b80156103dd5780601f106103b4576101008083540402835291602001916103dd565b820191905f5260205f20905b8154815290600101906020018083116103c057829003601f168201915b505050505090806003015490806004015490806005015490806006015490806007015f9054906101000a900460ff16908060070160019054906101000a900460ff16905089565b60035481565b5f60015f8481526020019081526020015f2090508060050154431015610485576040517f08c379a000000000000000000000000000000000000000000000000000000000815260040161047c90611372565b60405180910390fd5b80600601544311156104cc576040517f08c379a00000000000000000000000000000000000000000000000000000000081526004016104c3906113da565b60405180910390fd5b806008015f3373ffffffffffffffffffffffffffffffffffffffff1673ffffffffffffffffffffffffffffffffffffffff1681526020019081526020015f205f9054906101000a900460ff1615610558576040517f08c379a000000000000000000000000000000000000000000000000000000000815260040161054f90611442565b60405180910390fd5b5f5f5f9054906101000a900473ffffffffffffffffffffffffffffffffffffffff1673ffffffffffffffffffffffffffffffffffffffff166370a08231336040518263ffffffff1660e01b81526004016105b291906110a8565b602060405180830381865afa1580156105cd573d5f5f3e3d5ffd5b505050506040513d601f19601f820116820180604052508101906105f19190611474565b90505f8111610635576040517f08c379a000000000000000000000000000000000000000000000000000000000815260040161062c906114e9565b60405180910390fd5b6001826008015f3373ffffffffffffffffffffffffffffffffffffffff1673ffffffffffffffffffffffffffffffffffffffff1681526020019081526020015f205f6101000a81548160ff02191690831515021790555082156106b15780826003015f8282546106a59190611534565b925050819055506106cc565b80826004015f8282546106c49190611534565b925050819055505b833373ffffffffffffffffffffffffffffffffffffffff167f877856338e13f63d0c36822ff0ef736b80934cd90574a3a5bc9262c39d217c468584604051610715929190611567565b60405180910390a350505050565b60055481565b5f60015f8381526020019081526020015f209050806007015f9054906101000a900460ff161561078e576040517f08c379a0000000000000000000000000000000000000000000000000000000008152600401610785906115d8565b60405180910390fd5b8060070160019054906101000a900460ff16156107e0576040517f08c379a00000000000000000000000000000000000000000000000000000000081526004016107d790611640565b60405180910390fd5b60018160070160016101000a81548160ff0219169083151502179055505050565b6006602052805f5260405f205f915054906101000a900473ffffffffffffffffffffffffffffffffffffffff1681565b8060065f3373ffffffffffffffffffffffffffffffffffffffff1673ffffffffffffffffffffffffffffffffffffffff1681526020019081526020015f205f6101000a81548173ffffffffffffffffffffffffffffffffffffffff021916908373ffffffffffffffffffffffffffffffffffffffff16021790555050565b5f5f5f9054906101000a900473ffffffffffffffffffffffffffffffffffffffff1673ffffffffffffffffffffffffffffffffffffffff166370a08231836040518263ffffffff1660e01b815260040161090991906110a8565b602060405180830381865afa158015610924573d5f5f3e3d5ffd5b505050506040513d601f19601f820116820180604052508101906109489190611474565b9050919050565b5f6004545f5f9054906101000a900473ffffffffffffffffffffffffffffffffffffffff1673ffffffffffffffffffffffffffffffffffffffff166370a08231336040518263ffffffff1660e01b81526004016109ac91906110a8565b602060405180830381865afa1580156109c7573d5f5f3e3d5ffd5b505050506040513d601f19601f820116820180604052508101906109eb9190611474565b1015610a2c576040517f08c379a0000000000000000000000000000000000000000000000000000000008152600401610a23906116a8565b60405180910390fd5b5f60025f815480929190610a3f906116c6565b9190505590505f60015f8381526020019081526020015f20905033815f015f6101000a81548173ffffffffffffffffffffffffffffffffffffffff021916908373ffffffffffffffffffffffffffffffffffffffff16021790555084816001015f6101000a81548173ffffffffffffffffffffffffffffffffffffffff021916908373ffffffffffffffffffffffffffffffffffffffff16021790555083816002019081610aed91906118a4565b5043816005018190555060035443610b059190611534565b8160060181905550817f7e5361edd70248cf0a9e88723fe06b63fa8cad3a111b246c13fe2be1c5318f453387604051610b3f929190611973565b60405180910390a2819250505092915050565b60045481565b8060058190555050565b60025481565b8060038190555050565b5f5f9054906101000a900473ffffffffffffffffffffffffffffffffffffffff1681565b5f60015f8381526020019081526020015f20905080600601544311610bf0576040517f08c379a0000000000000000000000000000000000000000000000000000000008152600401610be7906119e4565b60405180910390fd5b806007015f9054906101000a900460ff1615610c41576040517f08c379a0000000000000000000000000000000000000000000000000000000008152600401610c38906115d8565b60405180910390fd5b8060070160019054906101000a900460ff1615610c93576040517f08c379a0000000000000000000000000000000000000000000000000000000008152600401610c8a90611a4c565b60405180910390fd5b8060040154816003015411610cdd576040517f08c379a0000000000000000000000000000000000000000000000000000000008152600401610cd490611ab4565b60405180910390fd5b6001816007015f6101000a81548160ff0219169083151502179055505f816001015f9054906101000a900473ffffffffffffffffffffffffffffffffffffffff1673ffffffffffffffffffffffffffffffffffffffff1682600201604051610d459190611b5c565b5f604051808303815f865af19150503d805f8114610d7e576040519150601f19603f3d011682016040523d82523d5f602084013e610d83565b606091505b5050905080610dc7576040517f08c379a0000000000000000000000000000000000000000000000000000000008152600401610dbe90611bbc565b60405180910390fd5b827f712ae1383f79ac853f8d882153778e0260ef8f03b504e2866e0593e04d2b291f60405160405180910390a2505050565b5f604051905090565b5f5ffd5b5f5ffd5b5f819050919050565b610e1c81610e0a565b8114610e26575f5ffd5b50565b5f81359050610e3781610e13565b92915050565b5f60208284031215610e5257610e51610e02565b5b5f610e5f84828501610e29565b91505092915050565b5f73ffffffffffffffffffffffffffffffffffffffff82169050919050565b5f610e9182610e68565b9050919050565b610ea181610e87565b82525050565b5f81519050919050565b5f82825260208201905092915050565b8281835e5f83830152505050565b5f601f19601f8301169050919050565b5f610ee982610ea7565b610ef38185610eb1565b9350610f03818560208601610ec1565b610f0c81610ecf565b840191505092915050565b610f2081610e0a565b82525050565b5f8115159050919050565b610f3a81610f26565b82525050565b5f61012082019050610f545f83018c610e98565b610f61602083018b610e98565b8181036040830152610f73818a610edf565b9050610f826060830189610f17565b610f8f6080830188610f17565b610f9c60a0830187610f17565b610fa960c0830186610f17565b610fb660e0830185610f31565b610fc4610100830184610f31565b9a9950505050505050505050565b5f602082019050610fe55f830184610f17565b92915050565b610ff481610f26565b8114610ffe575f5ffd5b50565b5f8135905061100f81610feb565b92915050565b5f5f6040838503121561102b5761102a610e02565b5b5f61103885828601610e29565b925050602061104985828601611001565b9150509250929050565b61105c81610e87565b8114611066575f5ffd5b50565b5f8135905061107781611053565b92915050565b5f6020828403121561109257611091610e02565b5b5f61109f84828501611069565b91505092915050565b5f6020820190506110bb5f830184610e98565b92915050565b5f5ffd5b5f5ffd5b7f4e487b71000000000000000000000000000000000000000000000000000000005f52604160045260245ffd5b6110ff82610ecf565b810181811067ffffffffffffffff8211171561111e5761111d6110c9565b5b80604052505050565b5f611130610df9565b905061113c82826110f6565b919050565b5f67ffffffffffffffff82111561115b5761115a6110c9565b5b61116482610ecf565b9050602081019050919050565b828183375f83830152505050565b5f61119161118c84611141565b611127565b9050828152602081018484840111156111ad576111ac6110c5565b5b6111b8848285611171565b509392505050565b5f82601f8301126111d4576111d36110c1565b5b81356111e484826020860161117f565b91505092915050565b5f5f6040838503121561120357611202610e02565b5b5f61121085828601611069565b925050602083013567ffffffffffffffff81111561123157611230610e06565b5b61123d858286016111c0565b9150509250929050565b5f819050919050565b5f61126a61126561126084610e68565b611247565b610e68565b9050919050565b5f61127b82611250565b9050919050565b5f61128c82611271565b9050919050565b61129c81611282565b82525050565b5f6020820190506112b55f830184611293565b92915050565b7f4e487b71000000000000000000000000000000000000000000000000000000005f52602260045260245ffd5b5f60028204905060018216806112ff57607f821691505b602082108103611312576113116112bb565b5b50919050565b5f82825260208201905092915050565b7f566f74696e67206e6f74207374617274656400000000000000000000000000005f82015250565b5f61135c601283611318565b915061136782611328565b602082019050919050565b5f6020820190508181035f83015261138981611350565b9050919050565b7f566f74696e6720656e64656400000000000000000000000000000000000000005f82015250565b5f6113c4600c83611318565b91506113cf82611390565b602082019050919050565b5f6020820190508181035f8301526113f1816113b8565b9050919050565b7f416c726561647920766f746564000000000000000000000000000000000000005f82015250565b5f61142c600d83611318565b9150611437826113f8565b602082019050919050565b5f6020820190508181035f83015261145981611420565b9050919050565b5f8151905061146e81610e13565b92915050565b5f6020828403121561148957611488610e02565b5b5f61149684828501611460565b91505092915050565b7f4e6f20766f74696e6720706f77657200000000000000000000000000000000005f82015250565b5f6114d3600f83611318565b91506114de8261149f565b602082019050919050565b5f6020820190508181035f830152611500816114c7565b9050919050565b7f4e487b71000000000000000000000000000000000000000000000000000000005f52601160045260245ffd5b5f61153e82610e0a565b915061154983610e0a565b925082820190508082111561156157611560611507565b5b92915050565b5f60408201905061157a5f830185610f31565b6115876020830184610f17565b9392505050565b7f416c7265616479206578656375746564000000000000000000000000000000005f82015250565b5f6115c2601083611318565b91506115cd8261158e565b602082019050919050565b5f6020820190508181035f8301526115ef816115b6565b9050919050565b7f416c72656164792063616e63656c6564000000000000000000000000000000005f82015250565b5f61162a601083611318565b9150611635826115f6565b602082019050919050565b5f6020820190508181035f8301526116578161161e565b9050919050565b7f42656c6f77207468726573686f6c6400000000000000000000000000000000005f82015250565b5f611692600f83611318565b915061169d8261165e565b602082019050919050565b5f6020820190508181035f8301526116bf81611686565b9050919050565b5f6116d082610e0a565b91507fffffffffffffffffffffffffffffffffffffffffffffffffffffffffffffffff820361170257611701611507565b5b600182019050919050565b5f819050815f5260205f209050919050565b5f6020601f8301049050919050565b5f82821b905092915050565b5f600883026117697fffffffffffffffffffffffffffffffffffffffffffffffffffffffffffffffff8261172e565b611773868361172e565b95508019841693508086168417925050509392505050565b5f6117a56117a061179b84610e0a565b611247565b610e0a565b9050919050565b5f819050919050565b6117be8361178b565b6117d26117ca826117ac565b84845461173a565b825550505050565b5f5f905090565b6117e96117da565b6117f48184846117b5565b505050565b5b818110156118175761180c5f826117e1565b6001810190506117fa565b5050565b601f82111561185c5761182d8161170d565b6118368461171f565b81016020851015611845578190505b6118596118518561171f565b8301826117f9565b50505b505050565b5f82821c905092915050565b5f61187c5f1984600802611861565b1980831691505092915050565b5f611894838361186d565b9150826002028217905092915050565b6118ad82610ea7565b67ffffffffffffffff8111156118c6576118c56110c9565b5b6118d082546112e8565b6118db82828561181b565b5f60209050601f83116001811461190c575f84156118fa578287015190505b6119048582611889565b86555061196b565b601f19841661191a8661170d565b5f5b828110156119415784890151825560018201915060208501945060208101905061191c565b8683101561195e578489015161195a601f89168261186d565b8355505b6001600288020188555050505b505050505050565b5f6040820190506119865f830185610e98565b6119936020830184610e98565b9392505050565b7f566f74696e67206e6f7420656e646564000000000000000000000000000000005f82015250565b5f6119ce601083611318565b91506119d98261199a565b602082019050919050565b5f6020820190508181035f8301526119fb816119c2565b9050919050565b7f50726f706f73616c2063616e63656c65640000000000000000000000000000005f82015250565b5f611a36601183611318565b9150611a4182611a02565b602082019050919050565b5f6020820190508181035f830152611a6381611a2a565b9050919050565b7f50726f706f73616c206661696c656400000000000000000000000000000000005f82015250565b5f611a9e600f83611318565b9150611aa982611a6a565b602082019050919050565b5f6020820190508181035f830152611acb81611a92565b9050919050565b5f81905092915050565b5f8154611ae8816112e8565b611af28186611ad2565b9450600182165f8114611b0c5760018114611b2157611b53565b60ff1983168652811515820286019350611b53565b611b2a8561170d565b5f5b83811015611b4b57815481890152600182019150602081019050611b2c565b838801955050505b50505092915050565b5f611b678284611adc565b915081905092915050565b7f457865637574696f6e206661696c6564000000000000000000000000000000005f82015250565b5f611ba6601083611318565b9150611bb182611b72565b602082019050919050565b5f6020820190508181035f830152611bd381611b9a565b905091905056fea26469706673582212209560a2b2fbbff6141a2f725a10fd8abe650fd788f02e4dcb76d0c66e5192b1f964736f6c634300081e0033","linkReferences":{}},"methodIdentifiers":{"cancel(uint256)":"40e58ee5","castVote(uint256,bool)":"15373e3d","delegate(address)":"5c19a95c","delegates(address)":"587cde1e","execute(uint256)":"fe0d94c1","getVotes(address)":"9ab24eb0","governanceToken()":"f96dae0a","proposalCount()":"da35c664","proposalThreshold()":"b58131b0","proposals(uint256)":"013cf08b","propose(address,bytes)":"9d481848","quorum()":"1703a018","setQuorum(uint256)":"c1ba4e59","setVotingPeriod(uint256)":"ea0217cf","votingPeriod()":"02a251a3"}}}}}