{"src/FixedContracts/SecureRewardDistributor.sol":{"SecureRewardsDistributor":{"abi":[{"type":"constructor","inputs":[{"name":"_stakingToken","type":"address","internalType":"address"},{"name":"_rewardToken","type":"address","internalType":"address"},{"name":"_rewardRate","type":"uint256","internalType":"uint256"}],"stateMutability":"nonpayable"},{"type":"function","name":"MINIMUM_STAKE_PERIOD","inputs":[],"outputs":[{"name":"","type":"uint256","internalType":"uint256"}],"stateMutability":"view"},{"type":"function","name":"balances","inputs":[{"name":"","type":"address","internalType":"address"}],"outputs":[{"name":"","type":"uint256","internalType":"uint256"}],"stateMutability":"view"},{"type":"function","name":"claim","inputs":[],"outputs":[],"stateMutability":"nonpayable"},{"type":"function","name":"earned","inputs":[{"name":"account","type":"address","internalType":"address"}],"outputs":[{"name":"","type":"uint256","internalType":"uint256"}],"stateMutability":"view"},{"type":"function","name":"emergencyWithdrawRewards","inputs":[{"name":"token","type":"address","internalType":"address"},{"name":"amount","type":"uint256","internalType":"uint256"}],"outputs":[],"stateMutability":"nonpayable"},{"type":"function","name":"exit","inputs":[],"outputs":[],"stateMutability":"nonpayable"},{"type":"function","name":"lastTimeRewardApplicable","inputs":[],"outputs":[{"name":"","type":"uint256","internalType":"uint256"}],"stateMutability":"view"},{"type":"function","name":"lastUpdateTime","inputs":[],"outputs":[{"name":"","type":"uint256","internalType":"uint256"}],"stateMutability":"view"},{"type":"function","name":"notifyRewardAmount","inputs":[{"name":"reward","type":"uint256","internalType":"uint256"}],"outputs":[],"stateMutability":"nonpayable"},{"type":"function","name":"owner","inputs":[],"outputs":[{"name":"","type":"address","internalType":"address"}],"stateMutability":"view"},{"type":"function","name":"periodFinish","inputs":[],"outputs":[{"name":"","type":"uint256","internalType":"uint256"}],"stateMutability":"view"},{"type":"function","name":"renounceOwnership","inputs":[],"outputs":[],"stateMutability":"nonpayable"},{"type":"function","name":"rewardPerToken","inputs":[],"outputs":[{"name":"","type":"uint256","internalType":"uint256"}],"stateMutability":"view"},{"type":"function","name":"rewardPerTokenStored","inputs":[],"outputs":[{"name":"","type":"uint256","internalType":"uint256"}],"stateMutability":"view"},{"type":"function","name":"rewardRate","inputs":[],"outputs":[{"name":"","type":"uint256","internalType":"uint256"}],"stateMutability":"view"},{"type":"function","name":"rewardToken","inputs":[],"outputs":[{"name":"","type":"address","internalType":"contract IERC20"}],"stateMutability":"view"},{"type":"function","name":"rewards","inputs":[{"name":"","type":"address","internalType":"address"}],"outputs":[{"name":"","type":"uint256","internalType":"uint256"}],"stateMutability":"view"},{"type":"function","name":"rewardsDuration","inputs":[],"outputs":[{"name":"","type":"uint256","internalType":"uint256"}],"stateMutability":"view"},{"type":"function","name":"setRewardRate","inputs":[{"name":"newRate","type":"uint256","internalType":"uint256"}],"outputs":[],"stateMutability":"nonpayable"},{"type":"function","name":"setRewardsDuration","inputs":[{"name":"duration","type":"uint256","internalType":"uint256"}],"outputs":[],"stateMutability":"nonpayable"},{"type":"function","name":"stake","inputs":[{"name":"amount","type":"uint256","internalType":"uint256"}],"outputs":[],"stateMutability":"nonpayable"},{"type":"function","name":"stakeTime","inputs":[{"name":"","type":"address","internalType":"address"}],"outputs":[{"name":"","type":"uint256","internalType":"uint256"}],"stateMutability":"view"},{"type":"function","name":"stakingToken","inputs":[],"outputs":[{"name":"","type":"address","internalType":"contract IERC20"}],"stateMutability":"view"},{"type":"function","name":"totalStaked","inputs":[],"outputs":[{"name":"","type":"uint256","internalType":"uint256"}],"stateMutability":"view"},{"type":"function","name":"transferOwnership","inputs":[{"name":"newOwner","type":"address","internalType":"address"}],"outputs":[],"stateMutability":"nonpayable"},{"type":"function","name":"userRewardPerTokenPaid","inputs":[{"name":"","type":"address","internalType":"address"}],"outputs":[{"name":"","type":"uint256","internalType":"uint256"}],"stateMutability":"view"},{"type":"function","name":"withdraw","inputs":[{"name":"amount","type":"uint256","internalType":"uint256"}],"outputs":[],"stateMutability":"nonpayable"},{"type":"event","name":"OwnershipTransferred","inputs":[{"name":"previousOwner","type":"address","indexed":true,"internalType":"address"},{"name":"newOwner","type":"address","indexed":true,"internalType":"address"}],"anonymous":false},{"type":"event","name":"RewardAdded","inputs":[{"name":"reward","type":"uint256","indexed":false,"internalType":"uint256"}],"anonymous":false},{"type":"event","name":"RewardPaid","inputs":[{"name":"user","type":"address","indexed":true,"internalType":"address"},{"name":"reward","type":"uint256","indexed":false,"internalType":"uint256"}],"anonymous":false},{"type":"event","name":"RewardsDurationUpdated","inputs":[{"name":"newDuration","type":"uint256","indexed":false,"internalType":"uint256"}],"anonymous":false},{"type":"event","name":"Staked","inputs":[{"name":"user","type":"address","indexed":true,"internalType":"address"},{"name":"amount","type":"uint256","indexed":false,"internalType":"uint256"}],"anonymous":false},{"type":"event","name":"Withdrawn","inputs":[{"name":"user","type":"address","indexed":true,"internalType":"address"},{"name":"amount","type":"uint256","indexed":false,"internalType":"uint256"}],"anonymous":false},{"type":"error","name":"OwnableInvalidOwner","inputs":[{"name":"owner","type":"address","internalType":"address"}]},{"type":"error","name":"OwnableUnauthorizedAccount","inputs":[{"name":"account","type":"address","internalType":"address"}]},{"type":"error","name":"ReentrancyGuardReentrantCall","inputs":[]},{"type":"error","name":"SafeERC20FailedOperation","inputs":[{"name":"token","type":"address","internalType":"address"}]}],"userdoc":{},"devdoc":{},"evm":{"bytecode":{"object":"60c060405262093a80600555348015610016575f5ffd5b50604051612646380380612646833981810160405281019061003891906102df565b33600161005761004c61015b60201b60201c565b61018460201b60201c565b5f01819055505f73ffffffffffffffffffffffffffffffffffffffff168173ffffffffffffffffffffffffffffffffffffffff16036100cd575f6040517f1e4fbdf70000000000000000000000000000000000000000000000000000000081526004016100c4919061033e565b60405180910390fd5b6100dc8161018d60201b60201c565b508273ffffffffffffffffffffffffffffffffffffffff1660a08173ffffffffffffffffffffffffffffffffffffffff16815250508173ffffffffffffffffffffffffffffffffffffffff1660808173ffffffffffffffffffffffffffffffffffffffff16815250508060018190555042600281905550505050610357565b5f7f9b779b17422d0df92223018b32b4d1fa46e071723d6817e2486d003becc55f005f1b905090565b5f819050919050565b5f5f5f9054906101000a900473ffffffffffffffffffffffffffffffffffffffff169050815f5f6101000a81548173ffffffffffffffffffffffffffffffffffffffff021916908373ffffffffffffffffffffffffffffffffffffffff1602179055508173ffffffffffffffffffffffffffffffffffffffff168173ffffffffffffffffffffffffffffffffffffffff167f8be0079c531659141344cd1fd0a4f28419497f9722a3daafe3b4186f6b6457e060405160405180910390a35050565b5f5ffd5b5f73ffffffffffffffffffffffffffffffffffffffff82169050919050565b5f61027b82610252565b9050919050565b61028b81610271565b8114610295575f5ffd5b50565b5f815190506102a681610282565b92915050565b5f819050919050565b6102be816102ac565b81146102c8575f5ffd5b50565b5f815190506102d9816102b5565b92915050565b5f5f5f606084860312156102f6576102f561024e565b5b5f61030386828701610298565b935050602061031486828701610298565b9250506040610325868287016102cb565b9150509250925092565b61033881610271565b82525050565b5f6020820190506103515f83018461032f565b92915050565b60805160a0516122b26103945f395f81816108c501528181610f6d015261130201525f8181610b4101528181610eba015261165101526122b25ff3fe608060405234801561000f575f5ffd5b50600436106101a6575f3560e01c80638b876347116100f7578063d28d441e11610095578063ebe2b12b1161006f578063ebe2b12b1461046e578063f2fde38b1461048c578063f7c618c1146104a8578063fb6f65bd146104c6576101a6565b8063d28d441e1461042a578063df136d6514610446578063e9fad8ee14610464576101a6565b8063a694fc3a116100d1578063a694fc3a146103b6578063c8f33c91146103d2578063cc1a378f146103f0578063cd3daf9d1461040c576101a6565b80638b8763471461034c5780638da5cb5b1461037c5780639e447fc61461039a576101a6565b80633c6b16ab1161016457806372f702f31161013e57806372f702f3146102d45780637b0a47ee146102f257806380faa57d14610310578063817b1cd21461032e576101a6565b80633c6b16ab146102a45780634e71d92d146102c0578063715018a6146102ca576101a6565b80628cc262146101aa5780630700037d146101da5780632170e4721461020a57806327e235e31461023a5780632e1a7d4d1461026a578063386a952514610286575b5f5ffd5b6101c460048036038101906101bf9190611a6b565b6104e4565b6040516101d19190611aae565b60405180910390f35b6101f460048036038101906101ef9190611a6b565b6105df565b6040516102019190611aae565b60405180910390f35b610224600480360381019061021f9190611a6b565b6105f4565b6040516102319190611aae565b60405180910390f35b610254600480360381019061024f9190611a6b565b610609565b6040516102619190611aae565b60405180910390f35b610284600480360381019061027f9190611af1565b61061e565b005b61028e610963565b60405161029b9190611aae565b60405180910390f35b6102be60048036038101906102b99190611af1565b610969565b005b6102c8610c7b565b005b6102d2610f58565b005b6102dc610f6b565b6040516102e99190611b77565b60405180910390f35b6102fa610f8f565b6040516103079190611aae565b60405180910390f35b610318610f95565b6040516103259190611aae565b60405180910390f35b610336610fae565b6040516103439190611aae565b60405180910390f35b61036660048036038101906103619190611a6b565b610fb4565b6040516103739190611aae565b60405180910390f35b610384610fc9565b6040516103919190611b9f565b60405180910390f35b6103b460048036038101906103af9190611af1565b610ff0565b005b6103d060048036038101906103cb9190611af1565b611124565b005b6103da6113a1565b6040516103e79190611aae565b60405180910390f35b61040a60048036038101906104059190611af1565b6113a7565b005b610414611476565b6040516104219190611aae565b60405180910390f35b610444600480360381019061043f9190611bb8565b6114df565b005b61044e61156f565b60405161045b9190611aae565b60405180910390f35b61046c611575565b005b6104766115c5565b6040516104839190611aae565b60405180910390f35b6104a660048036038101906104a19190611a6b565b6115cb565b005b6104b061164f565b6040516104bd9190611b77565b60405180910390f35b6104ce611673565b6040516104db9190611aae565b60405180910390f35b5f60085f8373ffffffffffffffffffffffffffffffffffffffff1673ffffffffffffffffffffffffffffffffffffffff1681526020019081526020015f2054670de0b6b3a764000060075f8573ffffffffffffffffffffffffffffffffffffffff1673ffffffffffffffffffffffffffffffffffffffff1681526020019081526020015f2054610572611476565b61057c9190611c23565b60095f8673ffffffffffffffffffffffffffffffffffffffff1673ffffffffffffffffffffffffffffffffffffffff1681526020019081526020015f20546105c49190611c56565b6105ce9190611cc4565b6105d89190611cf4565b9050919050565b6008602052805f5260405f205f915090505481565b600a602052805f5260405f205f915090505481565b6009602052805f5260405f205f915090505481565b610626611678565b3361062f611476565b60038190555061063d610f95565b6002819055505f73ffffffffffffffffffffffffffffffffffffffff168173ffffffffffffffffffffffffffffffffffffffff16146107055761067f816104e4565b60085f8373ffffffffffffffffffffffffffffffffffffffff1673ffffffffffffffffffffffffffffffffffffffff1681526020019081526020015f208190555060035460075f8373ffffffffffffffffffffffffffffffffffffffff1673ffffffffffffffffffffffffffffffffffffffff1681526020019081526020015f20819055505b5f8211610747576040517f08c379a000000000000000000000000000000000000000000000000000000000815260040161073e90611d81565b60405180910390fd5b8160095f3373ffffffffffffffffffffffffffffffffffffffff1673ffffffffffffffffffffffffffffffffffffffff1681526020019081526020015f205410156107c7576040517f08c379a00000000000000000000000000000000000000000000000000000000081526004016107be90611de9565b60405180910390fd5b6001600a5f3373ffffffffffffffffffffffffffffffffffffffff1673ffffffffffffffffffffffffffffffffffffffff1681526020019081526020015f20546108119190611cf4565b431015610853576040517f08c379a000000000000000000000000000000000000000000000000000000000815260040161084a90611e51565b60405180910390fd5b8160095f3373ffffffffffffffffffffffffffffffffffffffff1673ffffffffffffffffffffffffffffffffffffffff1681526020019081526020015f205f82825461089f9190611c23565b925050819055508160065f8282546108b79190611c23565b9250508190555061090933837f000000000000000000000000000000000000000000000000000000000000000073ffffffffffffffffffffffffffffffffffffffff1661169a9092919063ffffffff16565b3373ffffffffffffffffffffffffffffffffffffffff167f7084f5476618d8e60b11ef0d7d3f06914655adb8793e28ff7f018d4c76d505d58360405161094f9190611aae565b60405180910390a2506109606116ed565b50565b60055481565b610971611707565b5f61097a611476565b600381905550610988610f95565b6002819055505f73ffffffffffffffffffffffffffffffffffffffff168173ffffffffffffffffffffffffffffffffffffffff1614610a50576109ca816104e4565b60085f8373ffffffffffffffffffffffffffffffffffffffff1673ffffffffffffffffffffffffffffffffffffffff1681526020019081526020015f208190555060035460075f8373ffffffffffffffffffffffffffffffffffffffff1673ffffffffffffffffffffffffffffffffffffffff1681526020019081526020015f20819055505b5f8211610a92576040517f08c379a0000000000000000000000000000000000000000000000000000000008152600401610a8990611eb9565b60405180910390fd5b6004544210610ab45760055482610aa99190611cc4565b600181905550610af8565b5f42600454610ac39190611c23565b90505f60015482610ad49190611c56565b90506005548185610ae59190611cf4565b610aef9190611cc4565b60018190555050505b5f60015411610b3c576040517f08c379a0000000000000000000000000000000000000000000000000000000008152600401610b3390611f21565b60405180910390fd5b6005547f000000000000000000000000000000000000000000000000000000000000000073ffffffffffffffffffffffffffffffffffffffff166370a08231306040518263ffffffff1660e01b8152600401610b989190611b9f565b602060405180830381865afa158015610bb3573d5f5f3e3d5ffd5b505050506040513d601f19601f82011682018060405250810190610bd79190611f53565b610be19190611cc4565b6001541115610c25576040517f08c379a0000000000000000000000000000000000000000000000000000000008152600401610c1c90611fc8565b60405180910390fd5b4260028190555060055442610c3a9190611cf4565b6004819055507fde88a922e0d3b88b24e9623efeb464919c6bf9f66857a65e2bfcf2ce87a9433d82604051610c6f9190611aae565b60405180910390a15050565b610c83611678565b33610c8c611476565b600381905550610c9a610f95565b6002819055505f73ffffffffffffffffffffffffffffffffffffffff168173ffffffffffffffffffffffffffffffffffffffff1614610d6257610cdc816104e4565b60085f8373ffffffffffffffffffffffffffffffffffffffff1673ffffffffffffffffffffffffffffffffffffffff1681526020019081526020015f208190555060035460075f8373ffffffffffffffffffffffffffffffffffffffff1673ffffffffffffffffffffffffffffffffffffffff1681526020019081526020015f20819055505b5f60085f3373ffffffffffffffffffffffffffffffffffffffff1673ffffffffffffffffffffffffffffffffffffffff1681526020019081526020015f205490505f8111610de5576040517f08c379a0000000000000000000000000000000000000000000000000000000008152600401610ddc90612030565b60405180910390fd5b6001600a5f3373ffffffffffffffffffffffffffffffffffffffff1673ffffffffffffffffffffffffffffffffffffffff1681526020019081526020015f2054610e2f9190611cf4565b431015610e71576040517f08c379a0000000000000000000000000000000000000000000000000000000008152600401610e6890611e51565b60405180910390fd5b5f60085f3373ffffffffffffffffffffffffffffffffffffffff1673ffffffffffffffffffffffffffffffffffffffff1681526020019081526020015f2081905550610efe33827f000000000000000000000000000000000000000000000000000000000000000073ffffffffffffffffffffffffffffffffffffffff1661169a9092919063ffffffff16565b3373ffffffffffffffffffffffffffffffffffffffff167fe2403640ba68fed3a2f88b7557551d1993f84b99bb10ff833f0cf8db0c5e048682604051610f449190611aae565b60405180910390a25050610f566116ed565b565b610f60611707565b610f695f61178e565b565b7f000000000000000000000000000000000000000000000000000000000000000081565b60015481565b5f6004544210610fa757600454610fa9565b425b905090565b60065481565b6007602052805f5260405f205f915090505481565b5f5f5f9054906101000a900473ffffffffffffffffffffffffffffffffffffffff16905090565b610ff8611707565b5f611001611476565b60038190555061100f610f95565b6002819055505f73ffffffffffffffffffffffffffffffffffffffff168173ffffffffffffffffffffffffffffffffffffffff16146110d757611051816104e4565b60085f8373ffffffffffffffffffffffffffffffffffffffff1673ffffffffffffffffffffffffffffffffffffffff1681526020019081526020015f208190555060035460075f8373ffffffffffffffffffffffffffffffffffffffff1673ffffffffffffffffffffffffffffffffffffffff1681526020019081526020015f20819055505b5f8211611119576040517f08c379a000000000000000000000000000000000000000000000000000000000815260040161111090612098565b60405180910390fd5b816001819055505050565b61112c611678565b33611135611476565b600381905550611143610f95565b6002819055505f73ffffffffffffffffffffffffffffffffffffffff168173ffffffffffffffffffffffffffffffffffffffff161461120b57611185816104e4565b60085f8373ffffffffffffffffffffffffffffffffffffffff1673ffffffffffffffffffffffffffffffffffffffff1681526020019081526020015f208190555060035460075f8373ffffffffffffffffffffffffffffffffffffffff1673ffffffffffffffffffffffffffffffffffffffff1681526020019081526020015f20819055505b5f821161124d576040517f08c379a000000000000000000000000000000000000000000000000000000000815260040161124490612100565b60405180910390fd5b8160065f82825461125e9190611cf4565b925050819055508160095f3373ffffffffffffffffffffffffffffffffffffffff1673ffffffffffffffffffffffffffffffffffffffff1681526020019081526020015f205f8282546112b19190611cf4565b9250508190555043600a5f3373ffffffffffffffffffffffffffffffffffffffff1673ffffffffffffffffffffffffffffffffffffffff1681526020019081526020015f20819055506113473330847f000000000000000000000000000000000000000000000000000000000000000073ffffffffffffffffffffffffffffffffffffffff1661184f909392919063ffffffff16565b3373ffffffffffffffffffffffffffffffffffffffff167f9e71bc8eea02a63969f509818f2dafb9254532904319f9dbda79b67bd34a5f3d8360405161138d9190611aae565b60405180910390a25061139e6116ed565b50565b60025481565b6113af611707565b60045442116113f3576040517f08c379a00000000000000000000000000000000000000000000000000000000081526004016113ea90612168565b60405180910390fd5b5f8111611435576040517f08c379a000000000000000000000000000000000000000000000000000000000815260040161142c906121d0565b60405180910390fd5b806005819055507ffb46ca5a5e06d4540d6387b930a7c978bce0db5f449ec6b3f5d07c6e1d44f2d38160405161146b9190611aae565b60405180910390a150565b5f5f6006540361148a5760035490506114dc565b600654670de0b6b3a76400006001546002546114a4610f95565b6114ae9190611c23565b6114b89190611c56565b6114c29190611c56565b6114cc9190611cc4565b6003546114d99190611cf4565b90505b90565b6114e7611707565b62278d006004546114f89190611cf4565b4211611539576040517f08c379a00000000000000000000000000000000000000000000000000000000081526004016115309061225e565b60405180910390fd5b61156b611544610fc9565b828473ffffffffffffffffffffffffffffffffffffffff1661169a9092919063ffffffff16565b5050565b60035481565b6115bb60095f3373ffffffffffffffffffffffffffffffffffffffff1673ffffffffffffffffffffffffffffffffffffffff1681526020019081526020015f205461061e565b6115c3610c7b565b565b60045481565b6115d3611707565b5f73ffffffffffffffffffffffffffffffffffffffff168173ffffffffffffffffffffffffffffffffffffffff1603611643575f6040517f1e4fbdf700000000000000000000000000000000000000000000000000000000815260040161163a9190611b9f565b60405180910390fd5b61164c8161178e565b50565b7f000000000000000000000000000000000000000000000000000000000000000081565b600181565b6116806118a4565b600261169261168d6118e5565b61190e565b5f0181905550565b6116a78383836001611917565b6116e857826040517f5274afe70000000000000000000000000000000000000000000000000000000081526004016116df9190611b9f565b60405180910390fd5b505050565b60016116ff6116fa6118e5565b61190e565b5f0181905550565b61170f611979565b73ffffffffffffffffffffffffffffffffffffffff1661172d610fc9565b73ffffffffffffffffffffffffffffffffffffffff161461178c57611750611979565b6040517f118cdaa70000000000000000000000000000000000000000000000000000000081526004016117839190611b9f565b60405180910390fd5b565b5f5f5f9054906101000a900473ffffffffffffffffffffffffffffffffffffffff169050815f5f6101000a81548173ffffffffffffffffffffffffffffffffffffffff021916908373ffffffffffffffffffffffffffffffffffffffff1602179055508173ffffffffffffffffffffffffffffffffffffffff168173ffffffffffffffffffffffffffffffffffffffff167f8be0079c531659141344cd1fd0a4f28419497f9722a3daafe3b4186f6b6457e060405160405180910390a35050565b61185d848484846001611980565b61189e57836040517f5274afe70000000000000000000000000000000000000000000000000000000081526004016118959190611b9f565b60405180910390fd5b50505050565b6118ac6119f1565b156118e3576040517f3ee5aeb500000000000000000000000000000000000000000000000000000000815260040160405180910390fd5b565b5f7f9b779b17422d0df92223018b32b4d1fa46e071723d6817e2486d003becc55f005f1b905090565b5f819050919050565b5f5f63a9059cbb60e01b9050604051815f525f1960601c86166004528460245260205f60445f5f8b5af1925060015f5114831661196b57838315161561195f573d5f823e3d81fd5b5f873b113d1516831692505b806040525050949350505050565b5f33905090565b5f5f6323b872dd60e01b9050604051815f525f1960601c87166004525f1960601c86166024528460445260205f60645f5f8c5af1925060015f511483166119de5783831516156119d2573d5f823e3d81fd5b5f883b113d1516831692505b806040525f606052505095945050505050565b5f6002611a046119ff6118e5565b61190e565b5f015414905090565b5f5ffd5b5f73ffffffffffffffffffffffffffffffffffffffff82169050919050565b5f611a3a82611a11565b9050919050565b611a4a81611a30565b8114611a54575f5ffd5b50565b5f81359050611a6581611a41565b92915050565b5f60208284031215611a8057611a7f611a0d565b5b5f611a8d84828501611a57565b91505092915050565b5f819050919050565b611aa881611a96565b82525050565b5f602082019050611ac15f830184611a9f565b92915050565b611ad081611a96565b8114611ada575f5ffd5b50565b5f81359050611aeb81611ac7565b92915050565b5f60208284031215611b0657611b05611a0d565b5b5f611b1384828501611add565b91505092915050565b5f819050919050565b5f611b3f611b3a611b3584611a11565b611b1c565b611a11565b9050919050565b5f611b5082611b25565b9050919050565b5f611b6182611b46565b9050919050565b611b7181611b57565b82525050565b5f602082019050611b8a5f830184611b68565b92915050565b611b9981611a30565b82525050565b5f602082019050611bb25f830184611b90565b92915050565b5f5f60408385031215611bce57611bcd611a0d565b5b5f611bdb85828601611a57565b9250506020611bec85828601611add565b9150509250929050565b7f4e487b71000000000000000000000000000000000000000000000000000000005f52601160045260245ffd5b5f611c2d82611a96565b9150611c3883611a96565b9250828203905081811115611c5057611c4f611bf6565b5b92915050565b5f611c6082611a96565b9150611c6b83611a96565b9250828202611c7981611a96565b91508282048414831517611c9057611c8f611bf6565b5b5092915050565b7f4e487b71000000000000000000000000000000000000000000000000000000005f52601260045260245ffd5b5f611cce82611a96565b9150611cd983611a96565b925082611ce957611ce8611c97565b5b828204905092915050565b5f611cfe82611a96565b9150611d0983611a96565b9250828201905080821115611d2157611d20611bf6565b5b92915050565b5f82825260208201905092915050565b7f43616e6e6f7420776974686472617720300000000000000000000000000000005f82015250565b5f611d6b601183611d27565b9150611d7682611d37565b602082019050919050565b5f6020820190508181035f830152611d9881611d5f565b9050919050565b7f496e73756666696369656e742062616c616e63650000000000000000000000005f82015250565b5f611dd3601483611d27565b9150611dde82611d9f565b602082019050919050565b5f6020820190508181035f830152611e0081611dc7565b9050919050565b7f4d696e696d756d207374616b6520706572696f64206e6f74206d6574000000005f82015250565b5f611e3b601c83611d27565b9150611e4682611e07565b602082019050919050565b5f6020820190508181035f830152611e6881611e2f565b9050919050565b7f526577617264206d75737420626520706f7369746976650000000000000000005f82015250565b5f611ea3601783611d27565b9150611eae82611e6f565b602082019050919050565b5f6020820190508181035f830152611ed081611e97565b9050919050565b7f526577617264207261746520746f6f206c6f77000000000000000000000000005f82015250565b5f611f0b601383611d27565b9150611f1682611ed7565b602082019050919050565b5f6020820190508181035f830152611f3881611eff565b9050919050565b5f81519050611f4d81611ac7565b92915050565b5f60208284031215611f6857611f67611a0d565b5b5f611f7584828501611f3f565b91505092915050565b7f496e73756666696369656e74207265776172642062616c616e636500000000005f82015250565b5f611fb2601b83611d27565b9150611fbd82611f7e565b602082019050919050565b5f6020820190508181035f830152611fdf81611fa6565b9050919050565b7f4e6f2072657761726473000000000000000000000000000000000000000000005f82015250565b5f61201a600a83611d27565b915061202582611fe6565b602082019050919050565b5f6020820190508181035f8301526120478161200e565b9050919050565b7f52617465206d75737420626520706f73697469766500000000000000000000005f82015250565b5f612082601583611d27565b915061208d8261204e565b602082019050919050565b5f6020820190508181035f8301526120af81612076565b9050919050565b7f43616e6e6f74207374616b6520300000000000000000000000000000000000005f82015250565b5f6120ea600e83611d27565b91506120f5826120b6565b602082019050919050565b5f6020820190508181035f830152612117816120de565b9050919050565b7f50726576696f757320706572696f64206d75737420626520636f6d706c6574655f82015250565b5f612152602083611d27565b915061215d8261211e565b602082019050919050565b5f6020820190508181035f83015261217f81612146565b9050919050565b7f4475726174696f6e206d75737420626520706f736974697665000000000000005f82015250565b5f6121ba601983611d27565b91506121c582612186565b602082019050919050565b5f6020820190508181035f8301526121e7816121ae565b9050919050565b7f4d7573742077616974203330206461797320616674657220706572696f6420655f8201527f6e64000000000000000000000000000000000000000000000000000000000000602082015250565b5f612248602283611d27565b9150612253826121ee565b604082019050919050565b5f6020820190508181035f8301526122758161223c565b905091905056fea2646970667358221220ec2e0a25930067cd9400eba387a82e6c4c429c847e378e5c7430f93fab2439e364736f6c634300081e0033","linkReferences":{}},"methodIdentifiers":{"MINIMUM_STAKE_PERIOD()":"fb6f65bd","balances(address)":"27e235e3","claim()":"4e71d92d","earned(address)":"008cc262","emergencyWithdrawRewards(address,uint256)":"d28d441e","exit()":"e9fad8ee","lastTimeRewardApplicable()":"80faa57d","lastUpdateTime()":"c8f33c91","notifyRewardAmount(uint256)":"3c6b16ab","owner()":"8da5cb5b","periodFinish()":"ebe2b12b","renounceOwnership()":"715018a6","rewardPerToken()":"cd3daf9d","rewardPerTokenStored()":"df136d65","rewardRate()":"7b0a47ee","rewardToken()":"f7c618c1","rewards(address)":"0700037d","rewardsDuration()":"386a9525","setRewardRate(uint256)":"9e447fc6","setRewardsDuration(uint256)":"cc1a378f","stake(uint256)":"a694fc3a","stakeTime(address)":"2170e472","stakingToken()":"72f702f3","totalStaked()":"817b1cd2","transferOwnership(address)":"f2fde38b","userRewardPerTokenPaid(address)":"8b876347","withdraw(uint256)":"2e1a7d4d"}}}}}