{"abi":[{"type":"constructor","inputs":[{"name":"_asset","type":"address","internalType":"address"},{"name":"_name","type":"string","internalType":"string"},{"name":"_symbol","type":"string","internalType":"string"}],"stateMutability":"nonpayable"},{"type":"function","name":"admin","inputs":[],"outputs":[{"name":"","type":"address","internalType":"address"}],"stateMutability":"view"},{"type":"function","name":"allowance","inputs":[{"name":"owner","type":"address","internalType":"address"},{"name":"spender","type":"address","internalType":"address"}],"outputs":[{"name":"","type":"uint256","internalType":"uint256"}],"stateMutability":"view"},{"type":"function","name":"approve","inputs":[{"name":"spender","type":"address","internalType":"address"},{"name":"value","type":"uint256","internalType":"uint256"}],"outputs":[{"name":"","type":"bool","internalType":"bool"}],"stateMutability":"nonpayable"},{"type":"function","name":"asset","inputs":[],"outputs":[{"name":"","type":"address","internalType":"contract IERC20"}],"stateMutability":"view"},{"type":"function","name":"balanceOf","inputs":[{"name":"account","type":"address","internalType":"address"}],"outputs":[{"name":"","type":"uint256","internalType":"uint256"}],"stateMutability":"view"},{"type":"function","name":"collectFees","inputs":[],"outputs":[],"stateMutability":"nonpayable"},{"type":"function","name":"convertToAssets","inputs":[{"name":"shares","type":"uint256","internalType":"uint256"}],"outputs":[{"name":"","type":"uint256","internalType":"uint256"}],"stateMutability":"view"},{"type":"function","name":"convertToShares","inputs":[{"name":"assets","type":"uint256","internalType":"uint256"}],"outputs":[{"name":"","type":"uint256","internalType":"uint256"}],"stateMutability":"view"},{"type":"function","name":"decimals","inputs":[],"outputs":[{"name":"","type":"uint8","internalType":"uint8"}],"stateMutability":"view"},{"type":"function","name":"deposit","inputs":[{"name":"assets","type":"uint256","internalType":"uint256"}],"outputs":[{"name":"shares","type":"uint256","internalType":"uint256"}],"stateMutability":"nonpayable"},{"type":"function","name":"donateToVault","inputs":[{"name":"amount","type":"uint256","internalType":"uint256"}],"outputs":[],"stateMutability":"nonpayable"},{"type":"function","name":"emergencyWithdraw","inputs":[],"outputs":[],"stateMutability":"nonpayable"},{"type":"function","name":"name","inputs":[],"outputs":[{"name":"","type":"string","internalType":"string"}],"stateMutability":"view"},{"type":"function","name":"performanceFee","inputs":[],"outputs":[{"name":"","type":"uint256","internalType":"uint256"}],"stateMutability":"view"},{"type":"function","name":"setPerformanceFee","inputs":[{"name":"newFee","type":"uint256","internalType":"uint256"}],"outputs":[],"stateMutability":"nonpayable"},{"type":"function","name":"symbol","inputs":[],"outputs":[{"name":"","type":"string","internalType":"string"}],"stateMutability":"view"},{"type":"function","name":"totalAssets","inputs":[],"outputs":[{"name":"","type":"uint256","internalType":"uint256"}],"stateMutability":"view"},{"type":"function","name":"totalSupply","inputs":[],"outputs":[{"name":"","type":"uint256","internalType":"uint256"}],"stateMutability":"view"},{"type":"function","name":"transfer","inputs":[{"name":"to","type":"address","internalType":"address"},{"name":"value","type":"uint256","internalType":"uint256"}],"outputs":[{"name":"","type":"bool","internalType":"bool"}],"stateMutability":"nonpayable"},{"type":"function","name":"transferFrom","inputs":[{"name":"from","type":"address","internalType":"address"},{"name":"to","type":"address","internalType":"address"},{"name":"value","type":"uint256","internalType":"uint256"}],"outputs":[{"name":"","type":"bool","internalType":"bool"}],"stateMutability":"nonpayable"},{"type":"function","name":"withdraw","inputs":[{"name":"shares","type":"uint256","internalType":"uint256"}],"outputs":[{"name":"assets","type":"uint256","internalType":"uint256"}],"stateMutability":"nonpayable"},{"type":"event","name":"Approval","inputs":[{"name":"owner","type":"address","indexed":true,"internalType":"address"},{"name":"spender","type":"address","indexed":true,"internalType":"address"},{"name":"value","type":"uint256","indexed":false,"internalType":"uint256"}],"anonymous":false},{"type":"event","name":"Deposit","inputs":[{"name":"sender","type":"address","indexed":true,"internalType":"address"},{"name":"assets","type":"uint256","indexed":false,"internalType":"uint256"},{"name":"shares","type":"uint256","indexed":false,"internalType":"uint256"}],"anonymous":false},{"type":"event","name":"FeesCollected","inputs":[{"name":"amount","type":"uint256","indexed":false,"internalType":"uint256"}],"anonymous":false},{"type":"event","name":"Transfer","inputs":[{"name":"from","type":"address","indexed":true,"internalType":"address"},{"name":"to","type":"address","indexed":true,"internalType":"address"},{"name":"value","type":"uint256","indexed":false,"internalType":"uint256"}],"anonymous":false},{"type":"event","name":"Withdraw","inputs":[{"name":"sender","type":"address","indexed":true,"internalType":"address"},{"name":"assets","type":"uint256","indexed":false,"internalType":"uint256"},{"name":"shares","type":"uint256","indexed":false,"internalType":"uint256"}],"anonymous":false},{"type":"error","name":"ERC20InsufficientAllowance","inputs":[{"name":"spender","type":"address","internalType":"address"},{"name":"allowance","type":"uint256","internalType":"uint256"},{"name":"needed","type":"uint256","internalType":"uint256"}]},{"type":"error","name":"ERC20InsufficientBalance","inputs":[{"name":"sender","type":"address","internalType":"address"},{"name":"balance","type":"uint256","internalType":"uint256"},{"name":"needed","type":"uint256","internalType":"uint256"}]},{"type":"error","name":"ERC20InvalidApprover","inputs":[{"name":"approver","type":"address","internalType":"address"}]},{"type":"error","name":"ERC20InvalidReceiver","inputs":[{"name":"receiver","type":"address","internalType":"address"}]},{"type":"error","name":"ERC20InvalidSender","inputs":[{"name":"sender","type":"address","internalType":"address"}]},{"type":"error","name":"ERC20InvalidSpender","inputs":[{"name":"spender","type":"address","internalType":"address"}]}],"bytecode":{"object":"0x60a06040526064600755348015610014575f5ffd5b5060405161249b38038061249b8339818101604052810190610036919061027d565b818181600390816100479190610515565b5080600490816100579190610515565b5050508273ffffffffffffffffffffffffffffffffffffffff1660808173ffffffffffffffffffffffffffffffffffffffff16815250503360065f6101000a81548173ffffffffffffffffffffffffffffffffffffffff021916908373ffffffffffffffffffffffffffffffffffffffff1602179055505050506105e4565b5f604051905090565b5f5ffd5b5f5ffd5b5f73ffffffffffffffffffffffffffffffffffffffff82169050919050565b5f610110826100e7565b9050919050565b61012081610106565b811461012a575f5ffd5b50565b5f8151905061013b81610117565b92915050565b5f5ffd5b5f5ffd5b5f601f19601f8301169050919050565b7f4e487b71000000000000000000000000000000000000000000000000000000005f52604160045260245ffd5b61018f82610149565b810181811067ffffffffffffffff821117156101ae576101ad610159565b5b80604052505050565b5f6101c06100d6565b90506101cc8282610186565b919050565b5f67ffffffffffffffff8211156101eb576101ea610159565b5b6101f482610149565b9050602081019050919050565b8281835e5f83830152505050565b5f61022161021c846101d1565b6101b7565b90508281526020810184848401111561023d5761023c610145565b5b610248848285610201565b509392505050565b5f82601f83011261026457610263610141565b5b815161027484826020860161020f565b91505092915050565b5f5f5f60608486031215610294576102936100df565b5b5f6102a18682870161012d565b935050602084015167ffffffffffffffff8111156102c2576102c16100e3565b5b6102ce86828701610250565b925050604084015167ffffffffffffffff8111156102ef576102ee6100e3565b5b6102fb86828701610250565b9150509250925092565b5f81519050919050565b7f4e487b71000000000000000000000000000000000000000000000000000000005f52602260045260245ffd5b5f600282049050600182168061035357607f821691505b6020821081036103665761036561030f565b5b50919050565b5f819050815f5260205f209050919050565b5f6020601f8301049050919050565b5f82821b905092915050565b5f600883026103c87fffffffffffffffffffffffffffffffffffffffffffffffffffffffffffffffff8261038d565b6103d2868361038d565b95508019841693508086168417925050509392505050565b5f819050919050565b5f819050919050565b5f61041661041161040c846103ea565b6103f3565b6103ea565b9050919050565b5f819050919050565b61042f836103fc565b61044361043b8261041d565b848454610399565b825550505050565b5f5f905090565b61045a61044b565b610465818484610426565b505050565b5b818110156104885761047d5f82610452565b60018101905061046b565b5050565b601f8211156104cd5761049e8161036c565b6104a78461037e565b810160208510156104b6578190505b6104ca6104c28561037e565b83018261046a565b50505b505050565b5f82821c905092915050565b5f6104ed5f19846008026104d2565b1980831691505092915050565b5f61050583836104de565b9150826002028217905092915050565b61051e82610305565b67ffffffffffffffff81111561053757610536610159565b5b610541825461033c565b61054c82828561048c565b5f60209050601f83116001811461057d575f841561056b578287015190505b61057585826104fa565b8655506105dc565b601f19841661058b8661036c565b5f5b828110156105b25784890151825560018201915060208501945060208101905061058d565b868310156105cf57848901516105cb601f8916826104de565b8355505b6001600288020188555050505b505050505050565b608051611e756106265f395f81816105ed0152818161074601528181610894015281816109fb01528181610bcc01528181610ce20152610d7c0152611e755ff3fe608060405234801561000f575f5ffd5b5060043610610135575f3560e01c806370a08231116100b6578063b6b55f251161007a578063b6b55f2514610363578063c6e6f59214610393578063c8796572146103c3578063db2e21bc146103cd578063dd62ed3e146103d7578063f851a4401461040757610135565b806370a08231146102ab57806387788782146102db57806395d89b41146102f95780639e3875ba14610317578063a9059cbb1461033357610135565b806323b872dd116100fd57806323b872dd146101f35780632e1a7d4d14610223578063313ce5671461025357806338d52e0f1461027157806370897b231461028f57610135565b806301e1d1141461013957806306fdde031461015757806307a2d13a14610175578063095ea7b3146101a557806318160ddd146101d5575b5f5ffd5b610141610425565b60405161014e919061159f565b60405180910390f35b61015f61042b565b60405161016c9190611628565b60405180910390f35b61018f600480360381019061018a9190611676565b6104bb565b60405161019c919061159f565b60405180910390f35b6101bf60048036038101906101ba91906116fb565b6104f9565b6040516101cc9190611753565b60405180910390f35b6101dd61051b565b6040516101ea919061159f565b60405180910390f35b61020d6004803603810190610208919061176c565b610524565b60405161021a9190611753565b60405180910390f35b61023d60048036038101906102389190611676565b610552565b60405161024a919061159f565b60405180910390f35b61025b61073c565b60405161026891906117d7565b60405180910390f35b610279610744565b604051610286919061184b565b60405180910390f35b6102a960048036038101906102a49190611676565b610768565b005b6102c560048036038101906102c09190611864565b6107b7565b6040516102d2919061159f565b60405180910390f35b6102e36107fc565b6040516102f0919061159f565b60405180910390f35b610301610802565b60405161030e9190611628565b60405180910390f35b610331600480360381019061032c9190611676565b610892565b005b61034d600480360381019061034891906116fb565b610989565b60405161035a9190611753565b60405180910390f35b61037d60048036038101906103789190611676565b6109ab565b60405161038a919061159f565b60405180910390f35b6103ad60048036038101906103a89190611676565b610b4c565b6040516103ba919061159f565b60405180910390f35b6103cb610b8a565b005b6103d5610cdf565b005b6103f160048036038101906103ec919061188f565b610e5e565b6040516103fe919061159f565b60405180910390f35b61040f610ee0565b60405161041c91906118dc565b60405180910390f35b60055481565b60606003805461043a90611922565b80601f016020809104026020016040519081016040528092919081815260200182805461046690611922565b80156104b15780601f10610488576101008083540402835291602001916104b1565b820191905f5260205f20905b81548152906001019060200180831161049457829003601f168201915b5050505050905090565b5f5f6104c561051b565b90505f81036104d757829150506104f4565b80600554846104e6919061197f565b6104f091906119ed565b9150505b919050565b5f5f610503610f05565b9050610510818585610f0c565b600191505092915050565b5f600254905090565b5f5f61052e610f05565b905061053b858285610f1e565b610546858585610fb1565b60019150509392505050565b5f5f8211610595576040517f08c379a000000000000000000000000000000000000000000000000000000000815260040161058c90611a67565b60405180910390fd5b8161059f336107b7565b10156105e0576040517f08c379a00000000000000000000000000000000000000000000000000000000081526004016105d790611acf565b60405180910390fd5b6105e9826104bb565b90507f000000000000000000000000000000000000000000000000000000000000000073ffffffffffffffffffffffffffffffffffffffff1663a9059cbb33836040518363ffffffff1660e01b8152600401610646929190611aed565b6020604051808303815f875af1158015610662573d5f5f3e3d5ffd5b505050506040513d601f19601f820116820180604052508101906106869190611b3e565b6106c5576040517f08c379a00000000000000000000000000000000000000000000000000000000081526004016106bc90611bb3565b60405180910390fd5b6106cf33836110a1565b8060055f8282546106e09190611bd1565b925050819055503373ffffffffffffffffffffffffffffffffffffffff167ff279e6a1f5e320cca91135676d9cb6e44ca8a08c0b88342bcdb1144f6511b568828460405161072f929190611c04565b60405180910390a2919050565b5f6012905090565b7f000000000000000000000000000000000000000000000000000000000000000081565b6127108111156107ad576040517f08c379a00000000000000000000000000000000000000000000000000000000081526004016107a490611c75565b60405180910390fd5b8060078190555050565b5f5f5f8373ffffffffffffffffffffffffffffffffffffffff1673ffffffffffffffffffffffffffffffffffffffff1681526020019081526020015f20549050919050565b60075481565b60606004805461081190611922565b80601f016020809104026020016040519081016040528092919081815260200182805461083d90611922565b80156108885780601f1061085f57610100808354040283529160200191610888565b820191905f5260205f20905b81548152906001019060200180831161086b57829003601f168201915b5050505050905090565b7f000000000000000000000000000000000000000000000000000000000000000073ffffffffffffffffffffffffffffffffffffffff166323b872dd3330846040518463ffffffff1660e01b81526004016108ef93929190611c93565b6020604051808303815f875af115801561090b573d5f5f3e3d5ffd5b505050506040513d601f19601f8201168201806040525081019061092f9190611b3e565b61096e576040517f08c379a000000000000000000000000000000000000000000000000000000000815260040161096590611bb3565b60405180910390fd5b8060055f82825461097f9190611cc8565b9250508190555050565b5f5f610993610f05565b90506109a0818585610fb1565b600191505092915050565b5f5f82116109ee576040517f08c379a00000000000000000000000000000000000000000000000000000000081526004016109e590611d45565b60405180910390fd5b6109f782610b4c565b90507f000000000000000000000000000000000000000000000000000000000000000073ffffffffffffffffffffffffffffffffffffffff166323b872dd3330856040518463ffffffff1660e01b8152600401610a5693929190611c93565b6020604051808303815f875af1158015610a72573d5f5f3e3d5ffd5b505050506040513d601f19601f82011682018060405250810190610a969190611b3e565b610ad5576040517f08c379a0000000000000000000000000000000000000000000000000000000008152600401610acc90611bb3565b60405180910390fd5b8160055f828254610ae69190611cc8565b92505081905550610af73382611120565b3373ffffffffffffffffffffffffffffffffffffffff167f90890809c654f11d6e72a28fa60149770a0d11ec6c92319d6ceb2bb0a4ea1a158383604051610b3f929190611c04565b60405180910390a2919050565b5f5f610b5661051b565b90505f8103610b685782915050610b85565b6005548184610b77919061197f565b610b8191906119ed565b9150505b919050565b5f612710600754600554610b9e919061197f565b610ba891906119ed565b90505f811115610cdc578060055f828254610bc39190611bd1565b925050819055507f000000000000000000000000000000000000000000000000000000000000000073ffffffffffffffffffffffffffffffffffffffff1663a9059cbb33836040518363ffffffff1660e01b8152600401610c25929190611aed565b6020604051808303815f875af1158015610c41573d5f5f3e3d5ffd5b505050506040513d601f19601f82011682018060405250810190610c659190611b3e565b610ca4576040517f08c379a0000000000000000000000000000000000000000000000000000000008152600401610c9b90611dad565b60405180910390fd5b7f860c0aa5520013080c2f65981705fcdea474d9f7c3daf954656ed5e65d692d1f81604051610cd3919061159f565b60405180910390a15b50565b5f7f000000000000000000000000000000000000000000000000000000000000000073ffffffffffffffffffffffffffffffffffffffff166370a08231306040518263ffffffff1660e01b8152600401610d3991906118dc565b602060405180830381865afa158015610d54573d5f5f3e3d5ffd5b505050506040513d601f19601f82011682018060405250810190610d789190611ddf565b90507f000000000000000000000000000000000000000000000000000000000000000073ffffffffffffffffffffffffffffffffffffffff1663a9059cbb33836040518363ffffffff1660e01b8152600401610dd5929190611aed565b6020604051808303815f875af1158015610df1573d5f5f3e3d5ffd5b505050506040513d601f19601f82011682018060405250810190610e159190611b3e565b610e54576040517f08c379a0000000000000000000000000000000000000000000000000000000008152600401610e4b90611bb3565b60405180910390fd5b5f60058190555050565b5f60015f8473ffffffffffffffffffffffffffffffffffffffff1673ffffffffffffffffffffffffffffffffffffffff1681526020019081526020015f205f8373ffffffffffffffffffffffffffffffffffffffff1673ffffffffffffffffffffffffffffffffffffffff1681526020019081526020015f2054905092915050565b60065f9054906101000a900473ffffffffffffffffffffffffffffffffffffffff1681565b5f33905090565b610f19838383600161119f565b505050565b5f610f298484610e5e565b90507fffffffffffffffffffffffffffffffffffffffffffffffffffffffffffffffff811015610fab5781811015610f9c578281836040517ffb8f41b2000000000000000000000000000000000000000000000000000000008152600401610f9393929190611e0a565b60405180910390fd5b610faa84848484035f61119f565b5b50505050565b5f73ffffffffffffffffffffffffffffffffffffffff168373ffffffffffffffffffffffffffffffffffffffff1603611021575f6040517f96c6fd1e00000000000000000000000000000000000000000000000000000000815260040161101891906118dc565b60405180910390fd5b5f73ffffffffffffffffffffffffffffffffffffffff168273ffffffffffffffffffffffffffffffffffffffff1603611091575f6040517fec442f0500000000000000000000000000000000000000000000000000000000815260040161108891906118dc565b60405180910390fd5b61109c83838361136e565b505050565b5f73ffffffffffffffffffffffffffffffffffffffff168273ffffffffffffffffffffffffffffffffffffffff1603611111575f6040517f96c6fd1e00000000000000000000000000000000000000000000000000000000815260040161110891906118dc565b60405180910390fd5b61111c825f8361136e565b5050565b5f73ffffffffffffffffffffffffffffffffffffffff168273ffffffffffffffffffffffffffffffffffffffff1603611190575f6040517fec442f0500000000000000000000000000000000000000000000000000000000815260040161118791906118dc565b60405180910390fd5b61119b5f838361136e565b5050565b5f73ffffffffffffffffffffffffffffffffffffffff168473ffffffffffffffffffffffffffffffffffffffff160361120f575f6040517fe602df0500000000000000000000000000000000000000000000000000000000815260040161120691906118dc565b60405180910390fd5b5f73ffffffffffffffffffffffffffffffffffffffff168373ffffffffffffffffffffffffffffffffffffffff160361127f575f6040517f94280d6200000000000000000000000000000000000000000000000000000000815260040161127691906118dc565b60405180910390fd5b8160015f8673ffffffffffffffffffffffffffffffffffffffff1673ffffffffffffffffffffffffffffffffffffffff1681526020019081526020015f205f8573ffffffffffffffffffffffffffffffffffffffff1673ffffffffffffffffffffffffffffffffffffffff1681526020019081526020015f20819055508015611368578273ffffffffffffffffffffffffffffffffffffffff168473ffffffffffffffffffffffffffffffffffffffff167f8c5be1e5ebec7d5bd14f71427d1e84f3dd0314c0f7b2291e5b200ac8c7c3b9258460405161135f919061159f565b60405180910390a35b50505050565b5f73ffffffffffffffffffffffffffffffffffffffff168373ffffffffffffffffffffffffffffffffffffffff16036113be578060025f8282546113b29190611cc8565b9250508190555061148c565b5f5f5f8573ffffffffffffffffffffffffffffffffffffffff1673ffffffffffffffffffffffffffffffffffffffff1681526020019081526020015f2054905081811015611447578381836040517fe450d38c00000000000000000000000000000000000000000000000000000000815260040161143e93929190611e0a565b60405180910390fd5b8181035f5f8673ffffffffffffffffffffffffffffffffffffffff1673ffffffffffffffffffffffffffffffffffffffff1681526020019081526020015f2081905550505b5f73ffffffffffffffffffffffffffffffffffffffff168273ffffffffffffffffffffffffffffffffffffffff16036114d3578060025f828254039250508190555061151d565b805f5f8473ffffffffffffffffffffffffffffffffffffffff1673ffffffffffffffffffffffffffffffffffffffff1681526020019081526020015f205f82825401925050819055505b8173ffffffffffffffffffffffffffffffffffffffff168373ffffffffffffffffffffffffffffffffffffffff167fddf252ad1be2c89b69c2b068fc378daa952ba7f163c4a11628f55a4df523b3ef8360405161157a919061159f565b60405180910390a3505050565b5f819050919050565b61159981611587565b82525050565b5f6020820190506115b25f830184611590565b92915050565b5f81519050919050565b5f82825260208201905092915050565b8281835e5f83830152505050565b5f601f19601f8301169050919050565b5f6115fa826115b8565b61160481856115c2565b93506116148185602086016115d2565b61161d816115e0565b840191505092915050565b5f6020820190508181035f83015261164081846115f0565b905092915050565b5f5ffd5b61165581611587565b811461165f575f5ffd5b50565b5f813590506116708161164c565b92915050565b5f6020828403121561168b5761168a611648565b5b5f61169884828501611662565b91505092915050565b5f73ffffffffffffffffffffffffffffffffffffffff82169050919050565b5f6116ca826116a1565b9050919050565b6116da816116c0565b81146116e4575f5ffd5b50565b5f813590506116f5816116d1565b92915050565b5f5f6040838503121561171157611710611648565b5b5f61171e858286016116e7565b925050602061172f85828601611662565b9150509250929050565b5f8115159050919050565b61174d81611739565b82525050565b5f6020820190506117665f830184611744565b92915050565b5f5f5f6060848603121561178357611782611648565b5b5f611790868287016116e7565b93505060206117a1868287016116e7565b92505060406117b286828701611662565b9150509250925092565b5f60ff82169050919050565b6117d1816117bc565b82525050565b5f6020820190506117ea5f8301846117c8565b92915050565b5f819050919050565b5f61181361180e611809846116a1565b6117f0565b6116a1565b9050919050565b5f611824826117f9565b9050919050565b5f6118358261181a565b9050919050565b6118458161182b565b82525050565b5f60208201905061185e5f83018461183c565b92915050565b5f6020828403121561187957611878611648565b5b5f611886848285016116e7565b91505092915050565b5f5f604083850312156118a5576118a4611648565b5b5f6118b2858286016116e7565b92505060206118c3858286016116e7565b9150509250929050565b6118d6816116c0565b82525050565b5f6020820190506118ef5f8301846118cd565b92915050565b7f4e487b71000000000000000000000000000000000000000000000000000000005f52602260045260245ffd5b5f600282049050600182168061193957607f821691505b60208210810361194c5761194b6118f5565b5b50919050565b7f4e487b71000000000000000000000000000000000000000000000000000000005f52601160045260245ffd5b5f61198982611587565b915061199483611587565b92508282026119a281611587565b915082820484148315176119b9576119b8611952565b5b5092915050565b7f4e487b71000000000000000000000000000000000000000000000000000000005f52601260045260245ffd5b5f6119f782611587565b9150611a0283611587565b925082611a1257611a116119c0565b5b828204905092915050565b7f43616e6e6f7420776974686472617720300000000000000000000000000000005f82015250565b5f611a516011836115c2565b9150611a5c82611a1d565b602082019050919050565b5f6020820190508181035f830152611a7e81611a45565b9050919050565b7f496e73756666696369656e7420736861726573000000000000000000000000005f82015250565b5f611ab96013836115c2565b9150611ac482611a85565b602082019050919050565b5f6020820190508181035f830152611ae681611aad565b9050919050565b5f604082019050611b005f8301856118cd565b611b0d6020830184611590565b9392505050565b611b1d81611739565b8114611b27575f5ffd5b50565b5f81519050611b3881611b14565b92915050565b5f60208284031215611b5357611b52611648565b5b5f611b6084828501611b2a565b91505092915050565b7f5472616e73666572206661696c656400000000000000000000000000000000005f82015250565b5f611b9d600f836115c2565b9150611ba882611b69565b602082019050919050565b5f6020820190508181035f830152611bca81611b91565b9050919050565b5f611bdb82611587565b9150611be683611587565b9250828203905081811115611bfe57611bfd611952565b5b92915050565b5f604082019050611c175f830185611590565b611c246020830184611590565b9392505050565b7f46656520746f6f206869676800000000000000000000000000000000000000005f82015250565b5f611c5f600c836115c2565b9150611c6a82611c2b565b602082019050919050565b5f6020820190508181035f830152611c8c81611c53565b9050919050565b5f606082019050611ca65f8301866118cd565b611cb360208301856118cd565b611cc06040830184611590565b949350505050565b5f611cd282611587565b9150611cdd83611587565b9250828201905080821115611cf557611cf4611952565b5b92915050565b7f43616e6e6f74206465706f7369742030000000000000000000000000000000005f82015250565b5f611d2f6010836115c2565b9150611d3a82611cfb565b602082019050919050565b5f6020820190508181035f830152611d5c81611d23565b9050919050565b7f466565207472616e73666572206661696c6564000000000000000000000000005f82015250565b5f611d976013836115c2565b9150611da282611d63565b602082019050919050565b5f6020820190508181035f830152611dc481611d8b565b9050919050565b5f81519050611dd98161164c565b92915050565b5f60208284031215611df457611df3611648565b5b5f611e0184828501611dcb565b91505092915050565b5f606082019050611e1d5f8301866118cd565b611e2a6020830185611590565b611e376040830184611590565b94935050505056fea264697066735822122011e25677727086c5d10c326b3602952bbdd6447f0906450f39a83c447e50ee8764736f6c634300081e0033","linkReferences":{}},"methodIdentifiers":{"admin()":"f851a440","allowance(address,address)":"dd62ed3e","approve(address,uint256)":"095ea7b3","asset()":"38d52e0f","balanceOf(address)":"70a08231","collectFees()":"c8796572","convertToAssets(uint256)":"07a2d13a","convertToShares(uint256)":"c6e6f592","decimals()":"313ce567","deposit(uint256)":"b6b55f25","donateToVault(uint256)":"9e3875ba","emergencyWithdraw()":"db2e21bc","name()":"06fdde03","performanceFee()":"87788782","setPerformanceFee(uint256)":"70897b23","symbol()":"95d89b41","totalAssets()":"01e1d114","totalSupply()":"18160ddd","transfer(address,uint256)":"a9059cbb","transferFrom(address,address,uint256)":"23b872dd","withdraw(uint256)":"2e1a7d4d"},"id":19}