{"abi":[{"type":"constructor","inputs":[{"name":"_governanceToken","type":"address","internalType":"address"}],"stateMutability":"nonpayable"},{"type":"function","name":"TIMELOCK_DELAY","inputs":[],"outputs":[{"name":"","type":"uint256","internalType":"uint256"}],"stateMutability":"view"},{"type":"function","name":"acceptAdmin","inputs":[],"outputs":[],"stateMutability":"nonpayable"},{"type":"function","name":"admin","inputs":[],"outputs":[{"name":"","type":"address","internalType":"address"}],"stateMutability":"view"},{"type":"function","name":"cancel","inputs":[{"name":"proposalId","type":"uint256","internalType":"uint256"}],"outputs":[],"stateMutability":"nonpayable"},{"type":"function","name":"castVote","inputs":[{"name":"proposalId","type":"uint256","internalType":"uint256"},{"name":"support","type":"bool","internalType":"bool"}],"outputs":[],"stateMutability":"nonpayable"},{"type":"function","name":"execute","inputs":[{"name":"proposalId","type":"uint256","internalType":"uint256"}],"outputs":[],"stateMutability":"nonpayable"},{"type":"function","name":"governanceToken","inputs":[],"outputs":[{"name":"","type":"address","internalType":"contract IVotes"}],"stateMutability":"view"},{"type":"function","name":"pendingAdmin","inputs":[],"outputs":[{"name":"","type":"address","internalType":"address"}],"stateMutability":"view"},{"type":"function","name":"proposalCount","inputs":[],"outputs":[{"name":"","type":"uint256","internalType":"uint256"}],"stateMutability":"view"},{"type":"function","name":"proposalThreshold","inputs":[],"outputs":[{"name":"","type":"uint256","internalType":"uint256"}],"stateMutability":"view"},{"type":"function","name":"proposals","inputs":[{"name":"","type":"uint256","internalType":"uint256"}],"outputs":[{"name":"proposer","type":"address","internalType":"address"},{"name":"target","type":"address","internalType":"address"},{"name":"data","type":"bytes","internalType":"bytes"},{"name":"forVotes","type":"uint256","internalType":"uint256"},{"name":"againstVotes","type":"uint256","internalType":"uint256"},{"name":"startBlock","type":"uint256","internalType":"uint256"},{"name":"endBlock","type":"uint256","internalType":"uint256"},{"name":"eta","type":"uint256","internalType":"uint256"},{"name":"executed","type":"bool","internalType":"bool"},{"name":"canceled","type":"bool","internalType":"bool"}],"stateMutability":"view"},{"type":"function","name":"propose","inputs":[{"name":"target","type":"address","internalType":"address"},{"name":"data","type":"bytes","internalType":"bytes"}],"outputs":[{"name":"","type":"uint256","internalType":"uint256"}],"stateMutability":"nonpayable"},{"type":"function","name":"queue","inputs":[{"name":"proposalId","type":"uint256","internalType":"uint256"}],"outputs":[],"stateMutability":"nonpayable"},{"type":"function","name":"quorumVotes","inputs":[],"outputs":[{"name":"","type":"uint256","internalType":"uint256"}],"stateMutability":"view"},{"type":"function","name":"setPendingAdmin","inputs":[{"name":"newAdmin","type":"address","internalType":"address"}],"outputs":[],"stateMutability":"nonpayable"},{"type":"function","name":"setProposalThreshold","inputs":[{"name":"newThreshold","type":"uint256","internalType":"uint256"}],"outputs":[],"stateMutability":"nonpayable"},{"type":"function","name":"setQuorum","inputs":[{"name":"newQuorum","type":"uint256","internalType":"uint256"}],"outputs":[],"stateMutability":"nonpayable"},{"type":"function","name":"setVotingDelay","inputs":[{"name":"newDelay","type":"uint256","internalType":"uint256"}],"outputs":[],"stateMutability":"nonpayable"},{"type":"function","name":"setVotingPeriod","inputs":[{"name":"newPeriod","type":"uint256","internalType":"uint256"}],"outputs":[],"stateMutability":"nonpayable"},{"type":"function","name":"state","inputs":[{"name":"proposalId","type":"uint256","internalType":"uint256"}],"outputs":[{"name":"","type":"uint8","internalType":"uint8"}],"stateMutability":"view"},{"type":"function","name":"votingDelay","inputs":[],"outputs":[{"name":"","type":"uint256","internalType":"uint256"}],"stateMutability":"view"},{"type":"function","name":"votingPeriod","inputs":[],"outputs":[{"name":"","type":"uint256","internalType":"uint256"}],"stateMutability":"view"},{"type":"event","name":"ProposalCanceled","inputs":[{"name":"proposalId","type":"uint256","indexed":true,"internalType":"uint256"}],"anonymous":false},{"type":"event","name":"ProposalCreated","inputs":[{"name":"proposalId","type":"uint256","indexed":true,"internalType":"uint256"},{"name":"proposer","type":"address","indexed":false,"internalType":"address"},{"name":"target","type":"address","indexed":false,"internalType":"address"},{"name":"startBlock","type":"uint256","indexed":false,"internalType":"uint256"},{"name":"endBlock","type":"uint256","indexed":false,"internalType":"uint256"}],"anonymous":false},{"type":"event","name":"ProposalExecuted","inputs":[{"name":"proposalId","type":"uint256","indexed":true,"internalType":"uint256"}],"anonymous":false},{"type":"event","name":"ProposalQueued","inputs":[{"name":"proposalId","type":"uint256","indexed":true,"internalType":"uint256"},{"name":"eta","type":"uint256","indexed":false,"internalType":"uint256"}],"anonymous":false},{"type":"event","name":"VoteCast","inputs":[{"name":"voter","type":"address","indexed":true,"internalType":"address"},{"name":"proposalId","type":"uint256","indexed":true,"internalType":"uint256"},{"name":"support","type":"bool","indexed":false,"internalType":"bool"},{"name":"votes","type":"uint256","indexed":false,"internalType":"uint256"}],"anonymous":false}],"bytecode":{"object":"0x60a0604052600160025561b2fa60035569152d02c7e14af68000006004556954b40b1f852bda000000600555348015610036575f5ffd5b5060405161302238038061302283398181016040528101906100589190610130565b8073ffffffffffffffffffffffffffffffffffffffff1660808173ffffffffffffffffffffffffffffffffffffffff16815250503360065f6101000a81548173ffffffffffffffffffffffffffffffffffffffff021916908373ffffffffffffffffffffffffffffffffffffffff1602179055505061015b565b5f5ffd5b5f73ffffffffffffffffffffffffffffffffffffffff82169050919050565b5f6100ff826100d6565b9050919050565b61010f816100f5565b8114610119575f5ffd5b50565b5f8151905061012a81610106565b92915050565b5f60208284031215610145576101446100d2565b5b5f6101528482850161011c565b91505092915050565b608051612e9a6101885f395f818161078501528181610ca90152818161101a01526117430152612e9a5ff3fe608060405234801561000f575f5ffd5b5060043610610140575f3560e01c806370b0f660116100b6578063ddf0b0091161007a578063ddf0b00914610345578063ea0217cf14610361578063ece40cc11461037d578063f851a44014610399578063f96dae0a146103b7578063fe0d94c1146103d557610140565b806370b0f660146102a15780639d481848146102bd578063b58131b0146102ed578063c1ba4e591461030b578063da35c6641461032757610140565b8063267822471161010857806326782247146101df5780633932abb1146101fd5780633e4f49e61461021b57806340e58ee51461024b5780634dd18bf5146102675780635ba1c1a91461028357610140565b8063013cf08b1461014457806302a251a31461017d5780630e18b6811461019b57806315373e3d146101a557806324bc1a64146101c1575b5f5ffd5b61015e60048036038101906101599190611a64565b6103f1565b6040516101749a99989796959493929190611b67565b60405180910390f35b61018561051d565b6040516101929190611c08565b60405180910390f35b6101a3610523565b005b6101bf60048036038101906101ba9190611c4b565b610655565b005b6101c961095f565b6040516101d69190611c08565b60405180910390f35b6101e7610965565b6040516101f49190611c89565b60405180910390f35b61020561098a565b6040516102129190611c08565b60405180910390f35b61023560048036038101906102309190611a64565b610990565b6040516102429190611cbd565b60405180910390f35b61026560048036038101906102609190611a64565b610ab2565b005b610281600480360381019061027c9190611d00565b610df0565b005b61028b610f30565b6040516102989190611c08565b60405180910390f35b6102bb60048036038101906102b69190611a64565b610f37565b005b6102d760048036038101906102d29190611e57565b611014565b6040516102e49190611c08565b60405180910390f35b6102f561123c565b6040516103029190611c08565b60405180910390f35b61032560048036038101906103209190611a64565b611242565b005b61032f61131d565b60405161033c9190611c08565b60405180910390f35b61035f600480360381019061035a9190611a64565b611323565b005b61037b60048036038101906103769190611a64565b611563565b005b61039760048036038101906103929190611a64565b611641565b005b6103a161171c565b6040516103ae9190611c89565b60405180910390f35b6103bf611741565b6040516103cc9190611f0c565b60405180910390f35b6103ef60048036038101906103ea9190611a64565b611765565b005b5f602052805f5260405f205f91509050805f015f9054906101000a900473ffffffffffffffffffffffffffffffffffffffff1690806001015f9054906101000a900473ffffffffffffffffffffffffffffffffffffffff169080600201805461045990611f52565b80601f016020809104026020016040519081016040528092919081815260200182805461048590611f52565b80156104d05780601f106104a7576101008083540402835291602001916104d0565b820191905f5260205f20905b8154815290600101906020018083116104b357829003601f168201915b505050505090806003015490806004015490806005015490806006015490806007015490806008015f9054906101000a900460ff16908060080160019054906101000a900460ff1690508a565b60035481565b60075f9054906101000a900473ffffffffffffffffffffffffffffffffffffffff1673ffffffffffffffffffffffffffffffffffffffff163373ffffffffffffffffffffffffffffffffffffffff16146105b2576040517f08c379a00000000000000000000000000000000000000000000000000000000081526004016105a990611fdc565b60405180910390fd5b60075f9054906101000a900473ffffffffffffffffffffffffffffffffffffffff1660065f6101000a81548173ffffffffffffffffffffffffffffffffffffffff021916908373ffffffffffffffffffffffffffffffffffffffff1602179055505f60075f6101000a81548173ffffffffffffffffffffffffffffffffffffffff021916908373ffffffffffffffffffffffffffffffffffffffff160217905550565b5f5f5f8481526020019081526020015f20905080600501544310156106af576040517f08c379a00000000000000000000000000000000000000000000000000000000081526004016106a690612044565b60405180910390fd5b80600601544311156106f6576040517f08c379a00000000000000000000000000000000000000000000000000000000081526004016106ed906120ac565b60405180910390fd5b806009015f3373ffffffffffffffffffffffffffffffffffffffff1673ffffffffffffffffffffffffffffffffffffffff1681526020019081526020015f205f9054906101000a900460ff1615610782576040517f08c379a000000000000000000000000000000000000000000000000000000000815260040161077990612114565b60405180910390fd5b5f7f000000000000000000000000000000000000000000000000000000000000000073ffffffffffffffffffffffffffffffffffffffff16633a46b1a833600185600501546107d1919061215f565b6040518363ffffffff1660e01b81526004016107ee929190612192565b602060405180830381865afa158015610809573d5f5f3e3d5ffd5b505050506040513d601f19601f8201168201806040525081019061082d91906121cd565b90505f8111610871576040517f08c379a000000000000000000000000000000000000000000000000000000000815260040161086890612242565b60405180910390fd5b6001826009015f3373ffffffffffffffffffffffffffffffffffffffff1673ffffffffffffffffffffffffffffffffffffffff1681526020019081526020015f205f6101000a81548160ff02191690831515021790555082156108ed5780826003015f8282546108e19190612260565b92505081905550610908565b80826004015f8282546109009190612260565b925050819055505b833373ffffffffffffffffffffffffffffffffffffffff167f877856338e13f63d0c36822ff0ef736b80934cd90574a3a5bc9262c39d217c468584604051610951929190612293565b60405180910390a350505050565b60055481565b60075f9054906101000a900473ffffffffffffffffffffffffffffffffffffffff1681565b60025481565b5f5f5f5f8481526020019081526020015f2090508060080160019054906101000a900460ff16156109c5576002915050610aad565b806008015f9054906101000a900460ff16156109e5576007915050610aad565b806005015443116109f9575f915050610aad565b80600601544311610a0e576001915050610aad565b5f81600401548260030154610a239190612260565b9050600554811015610a3a57600392505050610aad565b8160040154826003015411610a5457600392505050610aad565b5f826007015403610a6a57600492505050610aad565b8160070154421015610a8157600592505050610aad565b621275008260070154610a949190612260565b421115610aa657600692505050610aad565b6005925050505b919050565b5f5f5f8381526020019081526020015f209050806008015f9054906101000a900460ff1615610b16576040517f08c379a0000000000000000000000000000000000000000000000000000000008152600401610b0d90612304565b60405180910390fd5b8060080160019054906101000a900460ff1615610b68576040517f08c379a0000000000000000000000000000000000000000000000000000000008152600401610b5f9061236c565b60405180910390fd5b805f015f9054906101000a900473ffffffffffffffffffffffffffffffffffffffff1673ffffffffffffffffffffffffffffffffffffffff163373ffffffffffffffffffffffffffffffffffffffff161480610c10575060065f9054906101000a900473ffffffffffffffffffffffffffffffffffffffff1673ffffffffffffffffffffffffffffffffffffffff163373ffffffffffffffffffffffffffffffffffffffff16145b610c4f576040517f08c379a0000000000000000000000000000000000000000000000000000000008152600401610c46906123d4565b60405180910390fd5b805f015f9054906101000a900473ffffffffffffffffffffffffffffffffffffffff1673ffffffffffffffffffffffffffffffffffffffff163373ffffffffffffffffffffffffffffffffffffffff1603610da2576004547f000000000000000000000000000000000000000000000000000000000000000073ffffffffffffffffffffffffffffffffffffffff16639ab24eb0835f015f9054906101000a900473ffffffffffffffffffffffffffffffffffffffff166040518263ffffffff1660e01b8152600401610d229190611c89565b602060405180830381865afa158015610d3d573d5f5f3e3d5ffd5b505050506040513d601f19601f82011682018060405250810190610d6191906121cd565b10610da1576040517f08c379a0000000000000000000000000000000000000000000000000000000008152600401610d989061243c565b60405180910390fd5b5b60018160080160016101000a81548160ff021916908315150217905550817f789cf55be980739dad1d0699b93b58e806b51c9d96619bfa8fe0a28abaa7b30c60405160405180910390a25050565b60065f9054906101000a900473ffffffffffffffffffffffffffffffffffffffff1673ffffffffffffffffffffffffffffffffffffffff163373ffffffffffffffffffffffffffffffffffffffff1614610e7f576040517f08c379a0000000000000000000000000000000000000000000000000000000008152600401610e76906124a4565b60405180910390fd5b5f73ffffffffffffffffffffffffffffffffffffffff168173ffffffffffffffffffffffffffffffffffffffff1603610eed576040517f08c379a0000000000000000000000000000000000000000000000000000000008152600401610ee49061250c565b60405180910390fd5b8060075f6101000a81548173ffffffffffffffffffffffffffffffffffffffff021916908373ffffffffffffffffffffffffffffffffffffffff16021790555050565b6202a30081565b60065f9054906101000a900473ffffffffffffffffffffffffffffffffffffffff1673ffffffffffffffffffffffffffffffffffffffff163373ffffffffffffffffffffffffffffffffffffffff1614610fc6576040517f08c379a0000000000000000000000000000000000000000000000000000000008152600401610fbd906124a4565b60405180910390fd5b600181101561100a576040517f08c379a000000000000000000000000000000000000000000000000000000000815260040161100190612574565b60405180910390fd5b8060028190555050565b5f6004547f000000000000000000000000000000000000000000000000000000000000000073ffffffffffffffffffffffffffffffffffffffff16639ab24eb0336040518263ffffffff1660e01b81526004016110719190611c89565b602060405180830381865afa15801561108c573d5f5f3e3d5ffd5b505050506040513d601f19601f820116820180604052508101906110b091906121cd565b10156110f1576040517f08c379a00000000000000000000000000000000000000000000000000000000081526004016110e8906125dc565b60405180910390fd5b5f60015f815480929190611104906125fa565b9190505590505f5f5f8381526020019081526020015f20905033815f015f6101000a81548173ffffffffffffffffffffffffffffffffffffffff021916908373ffffffffffffffffffffffffffffffffffffffff16021790555084816001015f6101000a81548173ffffffffffffffffffffffffffffffffffffffff021916908373ffffffffffffffffffffffffffffffffffffffff160217905550838160020190816111b191906127d8565b50600254436111c09190612260565b8160050181905550600354600254436111d99190612260565b6111e39190612260565b8160060181905550817f0498efc40851dd66b079b44ac06f0291de83b764e409f0e2727693d9a48a39f833878460050154856006015460405161122994939291906128a7565b60405180910390a2819250505092915050565b60045481565b60065f9054906101000a900473ffffffffffffffffffffffffffffffffffffffff1673ffffffffffffffffffffffffffffffffffffffff163373ffffffffffffffffffffffffffffffffffffffff16146112d1576040517f08c379a00000000000000000000000000000000000000000000000000000000081526004016112c8906124a4565b60405180910390fd5b5f8111611313576040517f08c379a000000000000000000000000000000000000000000000000000000000815260040161130a90612934565b60405180910390fd5b8060058190555050565b60015481565b5f5f5f8381526020019081526020015f2090508060060154431161137c576040517f08c379a00000000000000000000000000000000000000000000000000000000081526004016113739061299c565b60405180910390fd5b806008015f9054906101000a900460ff16156113cd576040517f08c379a00000000000000000000000000000000000000000000000000000000081526004016113c490612304565b60405180910390fd5b8060080160019054906101000a900460ff161561141f576040517f08c379a000000000000000000000000000000000000000000000000000000000815260040161141690612a04565b60405180910390fd5b5f816007015414611465576040517f08c379a000000000000000000000000000000000000000000000000000000000815260040161145c90612a6c565b60405180910390fd5b5f8160040154826003015461147a9190612260565b90506005548110156114c1576040517f08c379a00000000000000000000000000000000000000000000000000000000081526004016114b890612ad4565b60405180910390fd5b816004015482600301541161150b576040517f08c379a000000000000000000000000000000000000000000000000000000000815260040161150290612b3c565b60405180910390fd5b6202a3004261151a9190612260565b8260070181905550827f9a2e42fd6722813d69113e7d0079d3d940171428df7373df9c7f7617cfda289283600701546040516115569190611c08565b60405180910390a2505050565b60065f9054906101000a900473ffffffffffffffffffffffffffffffffffffffff1673ffffffffffffffffffffffffffffffffffffffff163373ffffffffffffffffffffffffffffffffffffffff16146115f2576040517f08c379a00000000000000000000000000000000000000000000000000000000081526004016115e9906124a4565b60405180910390fd5b611680811015611637576040517f08c379a000000000000000000000000000000000000000000000000000000000815260040161162e90612ba4565b60405180910390fd5b8060038190555050565b60065f9054906101000a900473ffffffffffffffffffffffffffffffffffffffff1673ffffffffffffffffffffffffffffffffffffffff163373ffffffffffffffffffffffffffffffffffffffff16146116d0576040517f08c379a00000000000000000000000000000000000000000000000000000000081526004016116c7906124a4565b60405180910390fd5b5f8111611712576040517f08c379a000000000000000000000000000000000000000000000000000000000815260040161170990612c0c565b60405180910390fd5b8060048190555050565b60065f9054906101000a900473ffffffffffffffffffffffffffffffffffffffff1681565b7f000000000000000000000000000000000000000000000000000000000000000081565b5f5f5f8381526020019081526020015f2090505f8160070154036117be576040517f08c379a00000000000000000000000000000000000000000000000000000000081526004016117b590612c74565b60405180910390fd5b806008015f9054906101000a900460ff161561180f576040517f08c379a000000000000000000000000000000000000000000000000000000000815260040161180690612304565b60405180910390fd5b8060080160019054906101000a900460ff1615611861576040517f08c379a000000000000000000000000000000000000000000000000000000000815260040161185890612a04565b60405180910390fd5b80600701544210156118a8576040517f08c379a000000000000000000000000000000000000000000000000000000000815260040161189f90612cdc565b60405180910390fd5b6212750081600701546118bb9190612260565b4211156118fd576040517f08c379a00000000000000000000000000000000000000000000000000000000081526004016118f490612d44565b60405180910390fd5b6001816008015f6101000a81548160ff0219169083151502179055505f5f826001015f9054906101000a900473ffffffffffffffffffffffffffffffffffffffff1673ffffffffffffffffffffffffffffffffffffffff16836002016040516119669190612dec565b5f604051808303815f865af19150503d805f811461199f576040519150601f19603f3d011682016040523d82523d5f602084013e6119a4565b606091505b50915091508181906119ec576040517f08c379a00000000000000000000000000000000000000000000000000000000081526004016119e39190612e44565b60405180910390fd5b50837f712ae1383f79ac853f8d882153778e0260ef8f03b504e2866e0593e04d2b291f60405160405180910390a250505050565b5f604051905090565b5f5ffd5b5f5ffd5b5f819050919050565b611a4381611a31565b8114611a4d575f5ffd5b50565b5f81359050611a5e81611a3a565b92915050565b5f60208284031215611a7957611a78611a29565b5b5f611a8684828501611a50565b91505092915050565b5f73ffffffffffffffffffffffffffffffffffffffff82169050919050565b5f611ab882611a8f565b9050919050565b611ac881611aae565b82525050565b5f81519050919050565b5f82825260208201905092915050565b8281835e5f83830152505050565b5f601f19601f8301169050919050565b5f611b1082611ace565b611b1a8185611ad8565b9350611b2a818560208601611ae8565b611b3381611af6565b840191505092915050565b611b4781611a31565b82525050565b5f8115159050919050565b611b6181611b4d565b82525050565b5f61014082019050611b7b5f83018d611abf565b611b88602083018c611abf565b8181036040830152611b9a818b611b06565b9050611ba9606083018a611b3e565b611bb66080830189611b3e565b611bc360a0830188611b3e565b611bd060c0830187611b3e565b611bdd60e0830186611b3e565b611beb610100830185611b58565b611bf9610120830184611b58565b9b9a5050505050505050505050565b5f602082019050611c1b5f830184611b3e565b92915050565b611c2a81611b4d565b8114611c34575f5ffd5b50565b5f81359050611c4581611c21565b92915050565b5f5f60408385031215611c6157611c60611a29565b5b5f611c6e85828601611a50565b9250506020611c7f85828601611c37565b9150509250929050565b5f602082019050611c9c5f830184611abf565b92915050565b5f60ff82169050919050565b611cb781611ca2565b82525050565b5f602082019050611cd05f830184611cae565b92915050565b611cdf81611aae565b8114611ce9575f5ffd5b50565b5f81359050611cfa81611cd6565b92915050565b5f60208284031215611d1557611d14611a29565b5b5f611d2284828501611cec565b91505092915050565b5f5ffd5b5f5ffd5b7f4e487b71000000000000000000000000000000000000000000000000000000005f52604160045260245ffd5b611d6982611af6565b810181811067ffffffffffffffff82111715611d8857611d87611d33565b5b80604052505050565b5f611d9a611a20565b9050611da68282611d60565b919050565b5f67ffffffffffffffff821115611dc557611dc4611d33565b5b611dce82611af6565b9050602081019050919050565b828183375f83830152505050565b5f611dfb611df684611dab565b611d91565b905082815260208101848484011115611e1757611e16611d2f565b5b611e22848285611ddb565b509392505050565b5f82601f830112611e3e57611e3d611d2b565b5b8135611e4e848260208601611de9565b91505092915050565b5f5f60408385031215611e6d57611e6c611a29565b5b5f611e7a85828601611cec565b925050602083013567ffffffffffffffff811115611e9b57611e9a611a2d565b5b611ea785828601611e2a565b9150509250929050565b5f819050919050565b5f611ed4611ecf611eca84611a8f565b611eb1565b611a8f565b9050919050565b5f611ee582611eba565b9050919050565b5f611ef682611edb565b9050919050565b611f0681611eec565b82525050565b5f602082019050611f1f5f830184611efd565b92915050565b7f4e487b71000000000000000000000000000000000000000000000000000000005f52602260045260245ffd5b5f6002820490506001821680611f6957607f821691505b602082108103611f7c57611f7b611f25565b5b50919050565b5f82825260208201905092915050565b7f4e6f742070656e64696e672061646d696e0000000000000000000000000000005f82015250565b5f611fc6601183611f82565b9150611fd182611f92565b602082019050919050565b5f6020820190508181035f830152611ff381611fba565b9050919050565b7f566f74696e67206e6f74207374617274656400000000000000000000000000005f82015250565b5f61202e601283611f82565b915061203982611ffa565b602082019050919050565b5f6020820190508181035f83015261205b81612022565b9050919050565b7f566f74696e6720656e64656400000000000000000000000000000000000000005f82015250565b5f612096600c83611f82565b91506120a182612062565b602082019050919050565b5f6020820190508181035f8301526120c38161208a565b9050919050565b7f416c726561647920766f746564000000000000000000000000000000000000005f82015250565b5f6120fe600d83611f82565b9150612109826120ca565b602082019050919050565b5f6020820190508181035f83015261212b816120f2565b9050919050565b7f4e487b71000000000000000000000000000000000000000000000000000000005f52601160045260245ffd5b5f61216982611a31565b915061217483611a31565b925082820390508181111561218c5761218b612132565b5b92915050565b5f6040820190506121a55f830185611abf565b6121b26020830184611b3e565b9392505050565b5f815190506121c781611a3a565b92915050565b5f602082840312156121e2576121e1611a29565b5b5f6121ef848285016121b9565b91505092915050565b7f4e6f20766f74696e6720706f77657200000000000000000000000000000000005f82015250565b5f61222c600f83611f82565b9150612237826121f8565b602082019050919050565b5f6020820190508181035f83015261225981612220565b9050919050565b5f61226a82611a31565b915061227583611a31565b925082820190508082111561228d5761228c612132565b5b92915050565b5f6040820190506122a65f830185611b58565b6122b36020830184611b3e565b9392505050565b7f416c7265616479206578656375746564000000000000000000000000000000005f82015250565b5f6122ee601083611f82565b91506122f9826122ba565b602082019050919050565b5f6020820190508181035f83015261231b816122e2565b9050919050565b7f416c72656164792063616e63656c6564000000000000000000000000000000005f82015250565b5f612356601083611f82565b915061236182612322565b602082019050919050565b5f6020820190508181035f8301526123838161234a565b9050919050565b7f4e6f7420617574686f72697a65640000000000000000000000000000000000005f82015250565b5f6123be600e83611f82565b91506123c98261238a565b602082019050919050565b5f6020820190508181035f8301526123eb816123b2565b9050919050565b7f50726f706f736572207374696c6c2068617320766f74696e6720706f776572005f82015250565b5f612426601f83611f82565b9150612431826123f2565b602082019050919050565b5f6020820190508181035f8301526124538161241a565b9050919050565b7f4e6f742061646d696e00000000000000000000000000000000000000000000005f82015250565b5f61248e600983611f82565b91506124998261245a565b602082019050919050565b5f6020820190508181035f8301526124bb81612482565b9050919050565b7f496e76616c6964206164647265737300000000000000000000000000000000005f82015250565b5f6124f6600f83611f82565b9150612501826124c2565b602082019050919050565b5f6020820190508181035f830152612523816124ea565b9050919050565b7f44656c617920746f6f2073686f727400000000000000000000000000000000005f82015250565b5f61255e600f83611f82565b91506125698261252a565b602082019050919050565b5f6020820190508181035f83015261258b81612552565b9050919050565b7f42656c6f772070726f706f73616c207468726573686f6c6400000000000000005f82015250565b5f6125c6601883611f82565b91506125d182612592565b602082019050919050565b5f6020820190508181035f8301526125f3816125ba565b9050919050565b5f61260482611a31565b91507fffffffffffffffffffffffffffffffffffffffffffffffffffffffffffffffff820361263657612635612132565b5b600182019050919050565b5f819050815f5260205f209050919050565b5f6020601f8301049050919050565b5f82821b905092915050565b5f6008830261269d7fffffffffffffffffffffffffffffffffffffffffffffffffffffffffffffffff82612662565b6126a78683612662565b95508019841693508086168417925050509392505050565b5f6126d96126d46126cf84611a31565b611eb1565b611a31565b9050919050565b5f819050919050565b6126f2836126bf565b6127066126fe826126e0565b84845461266e565b825550505050565b5f5f905090565b61271d61270e565b6127288184846126e9565b505050565b5b8181101561274b576127405f82612715565b60018101905061272e565b5050565b601f8211156127905761276181612641565b61276a84612653565b81016020851015612779578190505b61278d61278585612653565b83018261272d565b50505b505050565b5f82821c905092915050565b5f6127b05f1984600802612795565b1980831691505092915050565b5f6127c883836127a1565b9150826002028217905092915050565b6127e182611ace565b67ffffffffffffffff8111156127fa576127f9611d33565b5b6128048254611f52565b61280f82828561274f565b5f60209050601f831160018114612840575f841561282e578287015190505b61283885826127bd565b86555061289f565b601f19841661284e86612641565b5f5b8281101561287557848901518255600182019150602085019450602081019050612850565b86831015612892578489015161288e601f8916826127a1565b8355505b6001600288020188555050505b505050505050565b5f6080820190506128ba5f830187611abf565b6128c76020830186611abf565b6128d46040830185611b3e565b6128e16060830184611b3e565b95945050505050565b7f51756f72756d20746f6f206c6f770000000000000000000000000000000000005f82015250565b5f61291e600e83611f82565b9150612929826128ea565b602082019050919050565b5f6020820190508181035f83015261294b81612912565b9050919050565b7f566f74696e67206e6f7420656e646564000000000000000000000000000000005f82015250565b5f612986601083611f82565b915061299182612952565b602082019050919050565b5f6020820190508181035f8301526129b38161297a565b9050919050565b7f50726f706f73616c2063616e63656c65640000000000000000000000000000005f82015250565b5f6129ee601183611f82565b91506129f9826129ba565b602082019050919050565b5f6020820190508181035f830152612a1b816129e2565b9050919050565b7f416c7265616479207175657565640000000000000000000000000000000000005f82015250565b5f612a56600e83611f82565b9150612a6182612a22565b602082019050919050565b5f6020820190508181035f830152612a8381612a4a565b9050919050565b7f51756f72756d206e6f74207265616368656400000000000000000000000000005f82015250565b5f612abe601283611f82565b9150612ac982612a8a565b602082019050919050565b5f6020820190508181035f830152612aeb81612ab2565b9050919050565b7f50726f706f73616c206661696c656400000000000000000000000000000000005f82015250565b5f612b26600f83611f82565b9150612b3182612af2565b602082019050919050565b5f6020820190508181035f830152612b5381612b1a565b9050919050565b7f506572696f6420746f6f2073686f7274000000000000000000000000000000005f82015250565b5f612b8e601083611f82565b9150612b9982612b5a565b602082019050919050565b5f6020820190508181035f830152612bbb81612b82565b9050919050565b7f5468726573686f6c6420746f6f206c6f770000000000000000000000000000005f82015250565b5f612bf6601183611f82565b9150612c0182612bc2565b602082019050919050565b5f6020820190508181035f830152612c2381612bea565b9050919050565b7f4e6f7420717565756564000000000000000000000000000000000000000000005f82015250565b5f612c5e600a83611f82565b9150612c6982612c2a565b602082019050919050565b5f6020820190508181035f830152612c8b81612c52565b9050919050565b7f54696d656c6f636b206e6f74206d6574000000000000000000000000000000005f82015250565b5f612cc6601083611f82565b9150612cd182612c92565b602082019050919050565b5f6020820190508181035f830152612cf381612cba565b9050919050565b7f457865637574696f6e2077696e646f77206578706972656400000000000000005f82015250565b5f612d2e601883611f82565b9150612d3982612cfa565b602082019050919050565b5f6020820190508181035f830152612d5b81612d22565b9050919050565b5f81905092915050565b5f8154612d7881611f52565b612d828186612d62565b9450600182165f8114612d9c5760018114612db157612de3565b60ff1983168652811515820286019350612de3565b612dba85612641565b5f5b83811015612ddb57815481890152600182019150602081019050612dbc565b838801955050505b50505092915050565b5f612df78284612d6c565b915081905092915050565b5f81519050919050565b5f612e1682612e02565b612e208185611f82565b9350612e30818560208601611ae8565b612e3981611af6565b840191505092915050565b5f6020820190508181035f830152612e5c8184612e0c565b90509291505056fea2646970667358221220b0f72decb70e1a0ffc85e7f0cba2350da89d8e5a6b53ab86f7cfa1ad54f23ef064736f6c634300081e0033","linkReferences":{}},"methodIdentifiers":{"TIMELOCK_DELAY()":"5ba1c1a9","acceptAdmin()":"0e18b681","admin()":"f851a440","cancel(uint256)":"40e58ee5","castVote(uint256,bool)":"15373e3d","execute(uint256)":"fe0d94c1","governanceToken()":"f96dae0a","pendingAdmin()":"26782247","proposalCount()":"da35c664","proposalThreshold()":"b58131b0","proposals(uint256)":"013cf08b","propose(address,bytes)":"9d481848","queue(uint256)":"ddf0b009","quorumVotes()":"24bc1a64","setPendingAdmin(address)":"4dd18bf5","setProposalThreshold(uint256)":"ece40cc1","setQuorum(uint256)":"c1ba4e59","setVotingDelay(uint256)":"70b0f660","setVotingPeriod(uint256)":"ea0217cf","state(uint256)":"3e4f49e6","votingDelay()":"3932abb1","votingPeriod()":"02a251a3"},"id":14}